{
  "_format": "hh-sol-artifact-1",
  "contractName": "MyToken",
  "sourceName": "contracts/MyToken.sol",
  "abi": [
    {
      "inputs": [
        {
          "internalType": "string",
          "name": "_name",
          "type": "string"
        },
        {
          "internalType": "string",
          "name": "_symbol",
          "type": "string"
        },
        {
          "internalType": "uint256",
          "name": "_totalSupply",
          "type": "uint256"
        }
      ],
      "stateMutability": "nonpayable",
      "type": "constructor"
    },
    {
      "anonymous": false,
      "inputs": [
        {
          "indexed": true,
          "internalType": "address",
          "name": "_owner",
          "type": "address"
        },
        {
          "indexed": true,
          "internalType": "address",
          "name": "_spender",
          "type": "address"
        },
        {
          "indexed": false,
          "internalType": "uint256",
          "name": "_value",
          "type": "uint256"
        }
      ],
      "name": "Approval",
      "type": "event"
    },
    {
      "anonymous": false,
      "inputs": [
        {
          "indexed": true,
          "internalType": "address",
          "name": "_from",
          "type": "address"
        },
        {
          "indexed": true,
          "internalType": "address",
          "name": "_to",
          "type": "address"
        },
        {
          "indexed": false,
          "internalType": "uint256",
          "name": "_value",
          "type": "uint256"
        }
      ],
      "name": "Transfer",
      "type": "event"
    },
    {
      "inputs": [],
      "name": "LockedSupply",
      "outputs": [
        {
          "internalType": "uint256",
          "name": "",
          "type": "uint256"
        }
      ],
      "stateMutability": "view",
      "type": "function"
    },
    {
      "inputs": [
        {
          "internalType": "address",
          "name": "_owner",
          "type": "address"
        },
        {
          "internalType": "address",
          "name": "_spender",
          "type": "address"
        }
      ],
      "name": "allowance",
      "outputs": [
        {
          "internalType": "uint256",
          "name": "remaining",
          "type": "uint256"
        }
      ],
      "stateMutability": "view",
      "type": "function"
    },
    {
      "inputs": [
        {
          "internalType": "address",
          "name": "_spender",
          "type": "address"
        },
        {
          "internalType": "uint256",
          "name": "_value",
          "type": "uint256"
        }
      ],
      "name": "approve",
      "outputs": [
        {
          "internalType": "bool",
          "name": "success",
          "type": "bool"
        }
      ],
      "stateMutability": "nonpayable",
      "type": "function"
    },
    {
      "inputs": [
        {
          "internalType": "address",
          "name": "_owner",
          "type": "address"
        }
      ],
      "name": "balanceOf",
      "outputs": [
        {
          "internalType": "uint256",
          "name": "",
          "type": "uint256"
        }
      ],
      "stateMutability": "view",
      "type": "function"
    },
    {
      "inputs": [
        {
          "internalType": "address",
          "name": "_receiver",
          "type": "address"
        }
      ],
      "name": "lockedSupplyOf",
      "outputs": [
        {
          "internalType": "uint256",
          "name": "",
          "type": "uint256"
        }
      ],
      "stateMutability": "view",
      "type": "function"
    },
    {
      "inputs": [],
      "name": "lockedSupply_",
      "outputs": [
        {
          "internalType": "uint256",
          "name": "",
          "type": "uint256"
        }
      ],
      "stateMutability": "view",
      "type": "function"
    },
    {
      "inputs": [],
      "name": "owner",
      "outputs": [
        {
          "internalType": "address",
          "name": "",
          "type": "address"
        }
      ],
      "stateMutability": "view",
      "type": "function"
    },
    {
      "inputs": [
        {
          "internalType": "address",
          "name": "_receiver",
          "type": "address"
        },
        {
          "internalType": "uint256",
          "name": "_value",
          "type": "uint256"
        },
        {
          "internalType": "uint256",
          "name": "_lockperiod",
          "type": "uint256"
        }
      ],
      "name": "reserveLockFor",
      "outputs": [
        {
          "internalType": "bool",
          "name": "",
          "type": "bool"
        }
      ],
      "stateMutability": "nonpayable",
      "type": "function"
    },
    {
      "inputs": [],
      "name": "totalSupply",
      "outputs": [
        {
          "internalType": "uint256",
          "name": "",
          "type": "uint256"
        }
      ],
      "stateMutability": "view",
      "type": "function"
    },
    {
      "inputs": [],
      "name": "totalSupply_",
      "outputs": [
        {
          "internalType": "uint256",
          "name": "",
          "type": "uint256"
        }
      ],
      "stateMutability": "view",
      "type": "function"
    },
    {
      "inputs": [
        {
          "internalType": "address",
          "name": "_to",
          "type": "address"
        },
        {
          "internalType": "uint256",
          "name": "_value",
          "type": "uint256"
        }
      ],
      "name": "transfer",
      "outputs": [
        {
          "internalType": "bool",
          "name": "success",
          "type": "bool"
        }
      ],
      "stateMutability": "nonpayable",
      "type": "function"
    },
    {
      "inputs": [
        {
          "internalType": "address",
          "name": "_from",
          "type": "address"
        },
        {
          "internalType": "address",
          "name": "_to",
          "type": "address"
        },
        {
          "internalType": "uint256",
          "name": "_value",
          "type": "uint256"
        }
      ],
      "name": "transferFrom",
      "outputs": [
        {
          "internalType": "bool",
          "name": "success",
          "type": "bool"
        }
      ],
      "stateMutability": "nonpayable",
      "type": "function"
    }
  ],
  "bytecode": "0x60806040523480156200001157600080fd5b506040516200153838038062001538833981810160405281019062000037919062000259565b336000806101000a81548173ffffffffffffffffffffffffffffffffffffffff021916908373ffffffffffffffffffffffffffffffffffffffff16021790555082600490805190602001906200008f92919062000120565b508160059080519060200190620000a892919062000120565b5080600681905550600654600160008060009054906101000a900473ffffffffffffffffffffffffffffffffffffffff1673ffffffffffffffffffffffffffffffffffffffff1673ffffffffffffffffffffffffffffffffffffffff1681526020019081526020016000208190555050505062000436565b8280546200012e9062000388565b90600052602060002090601f0160209004810192826200015257600085556200019e565b82601f106200016d57805160ff19168380011785556200019e565b828001600101855582156200019e579182015b828111156200019d57825182559160200191906001019062000180565b5b509050620001ad9190620001b1565b5090565b5b80821115620001cc576000816000905550600101620001b2565b5090565b6000620001e7620001e18462000315565b620002e1565b9050828152602081018484840111156200020057600080fd5b6200020d84828562000352565b509392505050565b600082601f8301126200022757600080fd5b815162000239848260208601620001d0565b91505092915050565b60008151905062000253816200041c565b92915050565b6000806000606084860312156200026f57600080fd5b600084015167ffffffffffffffff8111156200028a57600080fd5b620002988682870162000215565b935050602084015167ffffffffffffffff811115620002b657600080fd5b620002c48682870162000215565b9250506040620002d78682870162000242565b9150509250925092565b6000604051905081810181811067ffffffffffffffff821117156200030b576200030a620003ed565b5b8060405250919050565b600067ffffffffffffffff821115620003335762000332620003ed565b5b601f19601f8301169050602081019050919050565b6000819050919050565b60005b838110156200037257808201518184015260208101905062000355565b8381111562000382576000848401525b50505050565b60006002820490506001821680620003a157607f821691505b60208210811415620003b857620003b7620003be565b5b50919050565b7f4e487b7100000000000000000000000000000000000000000000000000000000600052602260045260246000fd5b7f4e487b7100000000000000000000000000000000000000000000000000000000600052604160045260246000fd5b620004278162000348565b81146200043357600080fd5b50565b6110f280620004466000396000f3fe608060405234801561001057600080fd5b50600436106100b45760003560e01c80638da5cb5b116100715780638da5cb5b146101a357806395dd08d1146101c1578063a9059cbb146101df578063dd62ed3e1461020f578063ddd8e0321461023f578063ed97419c1461026f576100b4565b8063095ea7b3146100b957806318160ddd146100e95780631c6c7f591461010757806323b872dd14610125578063324536eb1461015557806370a0823114610173575b600080fd5b6100d360048036038101906100ce9190610c0d565b61029f565b6040516100e09190610e86565b60405180910390f35b6100f1610400565b6040516100fe9190610f61565b60405180910390f35b61010f61040a565b60405161011c9190610f61565b60405180910390f35b61013f600480360381019061013a9190610bbe565b610414565b60405161014c9190610e86565b60405180910390f35b61015d6105f2565b60405161016a9190610f61565b60405180910390f35b61018d60048036038101906101889190610b59565b6105f8565b60405161019a9190610f61565b60405180910390f35b6101ab610641565b6040516101b89190610e6b565b60405180910390f35b6101c9610665565b6040516101d69190610f61565b60405180910390f35b6101f960048036038101906101f49190610c0d565b61066b565b6040516102069190610e86565b60405180910390f35b61022960048036038101906102249190610b82565b6107d8565b6040516102369190610f61565b60405180910390f35b61025960048036038101906102549190610b59565b61085f565b6040516102669190610f61565b60405180910390f35b61028960048036038101906102849190610c49565b6108ab565b6040516102969190610e86565b60405180910390f35b60008273ffffffffffffffffffffffffffffffffffffffff163373ffffffffffffffffffffffffffffffffffffffff161415610310576040517f08c379a000000000000000000000000000000000000000000000000000000000815260040161030790610f21565b60405180910390fd5b81600260003373ffffffffffffffffffffffffffffffffffffffff1673ffffffffffffffffffffffffffffffffffffffff16815260200190815260200160002060008573ffffffffffffffffffffffffffffffffffffffff1673ffffffffffffffffffffffffffffffffffffffff168152602001908152602001600020819055508273ffffffffffffffffffffffffffffffffffffffff163373ffffffffffffffffffffffffffffffffffffffff167f8c5be1e5ebec7d5bd14f71427d1e84f3dd0314c0f7b2291e5b200ac8c7c3b925846040516103ee9190610f61565b60405180910390a36001905092915050565b6000600654905090565b6000600754905090565b60008161042185856107d8565b1015610462576040517f08c379a000000000000000000000000000000000000000000000000000000000815260040161045990610ea1565b60405180910390fd5b81600160008673ffffffffffffffffffffffffffffffffffffffff1673ffffffffffffffffffffffffffffffffffffffff1681526020019081526020016000205410156104e4576040517f08c379a00000000000000000000000000000000000000000000000000000000081526004016104db90610f41565b60405180910390fd5b6104ef848484610a7e565b81600260008673ffffffffffffffffffffffffffffffffffffffff1673ffffffffffffffffffffffffffffffffffffffff16815260200190815260200160002060008573ffffffffffffffffffffffffffffffffffffffff1673ffffffffffffffffffffffffffffffffffffffff168152602001908152602001600020600082825461057b9190610fe3565b925050819055508273ffffffffffffffffffffffffffffffffffffffff168473ffffffffffffffffffffffffffffffffffffffff167fddf252ad1be2c89b69c2b068fc378daa952ba7f163c4a11628f55a4df523b3ef846040516105df9190610f61565b60405180910390a3600190509392505050565b60065481565b6000600160008373ffffffffffffffffffffffffffffffffffffffff1673ffffffffffffffffffffffffffffffffffffffff168152602001908152602001600020549050919050565b60008054906101000a900473ffffffffffffffffffffffffffffffffffffffff1681565b60075481565b600081600160003373ffffffffffffffffffffffffffffffffffffffff1673ffffffffffffffffffffffffffffffffffffffff1681526020019081526020016000205410156106ef576040517f08c379a00000000000000000000000000000000000000000000000000000000081526004016106e690610f41565b60405180910390fd5b8273ffffffffffffffffffffffffffffffffffffffff163373ffffffffffffffffffffffffffffffffffffffff16141561075e576040517f08c379a000000000000000000000000000000000000000000000000000000000815260040161075590610f01565b60405180910390fd5b610769338484610a7e565b8273ffffffffffffffffffffffffffffffffffffffff163373ffffffffffffffffffffffffffffffffffffffff167fddf252ad1be2c89b69c2b068fc378daa952ba7f163c4a11628f55a4df523b3ef846040516107c69190610f61565b60405180910390a36001905092915050565b6000600260008473ffffffffffffffffffffffffffffffffffffffff1673ffffffffffffffffffffffffffffffffffffffff16815260200190815260200160002060008373ffffffffffffffffffffffffffffffffffffffff1673ffffffffffffffffffffffffffffffffffffffff16815260200190815260200160002054905092915050565b6000600360008373ffffffffffffffffffffffffffffffffffffffff1673ffffffffffffffffffffffffffffffffffffffff168152602001908152602001600020600001549050919050565b60008060009054906101000a900473ffffffffffffffffffffffffffffffffffffffff1673ffffffffffffffffffffffffffffffffffffffff163373ffffffffffffffffffffffffffffffffffffffff161461093c576040517f08c379a000000000000000000000000000000000000000000000000000000000815260040161093390610ec1565b60405180910390fd5b6000600360008673ffffffffffffffffffffffffffffffffffffffff1673ffffffffffffffffffffffffffffffffffffffff16815260200190815260200160002060000154146109c1576040517f08c379a00000000000000000000000000000000000000000000000000000000081526004016109b890610ee1565b60405180910390fd5b82600360008673ffffffffffffffffffffffffffffffffffffffff1673ffffffffffffffffffffffffffffffffffffffff168152602001908152602001600020600001819055508142610a149190610f8d565b600360008673ffffffffffffffffffffffffffffffffffffffff1673ffffffffffffffffffffffffffffffffffffffff168152602001908152602001600020600101819055508260076000828254610a6c9190610f8d565b92505081905550600190509392505050565b80600160008573ffffffffffffffffffffffffffffffffffffffff1673ffffffffffffffffffffffffffffffffffffffff1681526020019081526020016000206000828254610acd9190610fe3565b9250508190555080600160008473ffffffffffffffffffffffffffffffffffffffff1673ffffffffffffffffffffffffffffffffffffffff1681526020019081526020016000206000828254610b239190610f8d565b92505081905550505050565b600081359050610b3e8161108e565b92915050565b600081359050610b53816110a5565b92915050565b600060208284031215610b6b57600080fd5b6000610b7984828501610b2f565b91505092915050565b60008060408385031215610b9557600080fd5b6000610ba385828601610b2f565b9250506020610bb485828601610b2f565b9150509250929050565b600080600060608486031215610bd357600080fd5b6000610be186828701610b2f565b9350506020610bf286828701610b2f565b9250506040610c0386828701610b44565b9150509250925092565b60008060408385031215610c2057600080fd5b6000610c2e85828601610b2f565b9250506020610c3f85828601610b44565b9150509250929050565b600080600060608486031215610c5e57600080fd5b6000610c6c86828701610b2f565b9350506020610c7d86828701610b44565b9250506040610c8e86828701610b44565b9150509250925092565b610ca181611017565b82525050565b610cb081611029565b82525050565b6000610cc3601c83610f7c565b91507f416c6c6f77616e636520616d6f756e7420697320746f6f206c6f7721000000006000830152602082019050919050565b6000610d03601983610f7c565b91507f4f6e6c79206f776e65722063616e20736574206c6f636b7321000000000000006000830152602082019050919050565b6000610d43601483610f7c565b91507f4c6f636b20616c726561647920657869737473210000000000000000000000006000830152602082019050919050565b6000610d83602383610f7c565b91507f596f752063616e6e6f74207472616e7366657220746f2073616d652077616c6c60008301527f65742100000000000000000000000000000000000000000000000000000000006020830152604082019050919050565b6000610de9601e83610f7c565b91507f43616e6e6f7420417070726f76652053616d65204164647265737365732100006000830152602082019050919050565b6000610e29601583610f7c565b91507f496e73756666696369656e742042616c616e63652100000000000000000000006000830152602082019050919050565b610e6581611055565b82525050565b6000602082019050610e806000830184610c98565b92915050565b6000602082019050610e9b6000830184610ca7565b92915050565b60006020820190508181036000830152610eba81610cb6565b9050919050565b60006020820190508181036000830152610eda81610cf6565b9050919050565b60006020820190508181036000830152610efa81610d36565b9050919050565b60006020820190508181036000830152610f1a81610d76565b9050919050565b60006020820190508181036000830152610f3a81610ddc565b9050919050565b60006020820190508181036000830152610f5a81610e1c565b9050919050565b6000602082019050610f766000830184610e5c565b92915050565b600082825260208201905092915050565b6000610f9882611055565b9150610fa383611055565b9250827fffffffffffffffffffffffffffffffffffffffffffffffffffffffffffffffff03821115610fd857610fd761105f565b5b828201905092915050565b6000610fee82611055565b9150610ff983611055565b92508282101561100c5761100b61105f565b5b828203905092915050565b600061102282611035565b9050919050565b60008115159050919050565b600073ffffffffffffffffffffffffffffffffffffffff82169050919050565b6000819050919050565b7f4e487b7100000000000000000000000000000000000000000000000000000000600052601160045260246000fd5b61109781611017565b81146110a257600080fd5b50565b6110ae81611055565b81146110b957600080fd5b5056fea2646970667358221220f4291f473727ca82ab05ef211105823285637f7141e65ff7732c04147d75a55864736f6c63430008000033",
  "linkReferences": {},
  "deployedLinkReferences": {}
}