{
  "_format": "hh-sol-artifact-1",
  "contractName": "MyToken",
  "sourceName": "contracts/MyToken.sol",
  "abi": [
    {
      "inputs": [
        {
          "internalType": "uint256",
          "name": "_totalSupply",
          "type": "uint256"
        }
      ],
      "stateMutability": "nonpayable",
      "type": "constructor"
    },
    {
      "inputs": [
        {
          "internalType": "address",
          "name": "_owner",
          "type": "address"
        }
      ],
      "name": "balanceOf",
      "outputs": [
        {
          "internalType": "uint256",
          "name": "balance",
          "type": "uint256"
        }
      ],
      "stateMutability": "view",
      "type": "function"
    },
    {
      "inputs": [],
      "name": "owner",
      "outputs": [
        {
          "internalType": "address",
          "name": "",
          "type": "address"
        }
      ],
      "stateMutability": "view",
      "type": "function"
    },
    {
      "inputs": [],
      "name": "totalSupply",
      "outputs": [
        {
          "internalType": "uint256",
          "name": "",
          "type": "uint256"
        }
      ],
      "stateMutability": "view",
      "type": "function"
    },
    {
      "inputs": [],
      "name": "totalSupply_",
      "outputs": [
        {
          "internalType": "uint256",
          "name": "",
          "type": "uint256"
        }
      ],
      "stateMutability": "view",
      "type": "function"
    },
    {
      "inputs": [
        {
          "internalType": "address",
          "name": "_to",
          "type": "address"
        },
        {
          "internalType": "uint256",
          "name": "_value",
          "type": "uint256"
        }
      ],
      "name": "transfer",
      "outputs": [
        {
          "internalType": "bool",
          "name": "success",
          "type": "bool"
        }
      ],
      "stateMutability": "nonpayable",
      "type": "function"
    }
  ],
  "bytecode": "0x608060405234801561001057600080fd5b506040516107f53803806107f5833981810160405281019061003291906100fb565b336000806101000a81548173ffffffffffffffffffffffffffffffffffffffff021916908373ffffffffffffffffffffffffffffffffffffffff16021790555080600281905550600254600160008060009054906101000a900473ffffffffffffffffffffffffffffffffffffffff1673ffffffffffffffffffffffffffffffffffffffff1673ffffffffffffffffffffffffffffffffffffffff1681526020019081526020016000208190555050610145565b6000815190506100f58161012e565b92915050565b60006020828403121561010d57600080fd5b600061011b848285016100e6565b91505092915050565b6000819050919050565b61013781610124565b811461014257600080fd5b50565b6106a1806101546000396000f3fe608060405234801561001057600080fd5b50600436106100575760003560e01c806318160ddd1461005c578063324536eb1461007a57806370a08231146100985780638da5cb5b146100c8578063a9059cbb146100e6575b600080fd5b610064610116565b6040516100719190610510565b60405180910390f35b610082610120565b60405161008f9190610510565b60405180910390f35b6100b260048036038101906100ad9190610362565b610126565b6040516100bf9190610510565b60405180910390f35b6100d061016f565b6040516100dd919061049a565b60405180910390f35b61010060048036038101906100fb919061038b565b610193565b60405161010d91906104b5565b60405180910390f35b6000600254905090565b60025481565b6000600160008373ffffffffffffffffffffffffffffffffffffffff1673ffffffffffffffffffffffffffffffffffffffff168152602001908152602001600020549050919050565b60008054906101000a900473ffffffffffffffffffffffffffffffffffffffff1681565b600081600160003373ffffffffffffffffffffffffffffffffffffffff1673ffffffffffffffffffffffffffffffffffffffff168152602001908152602001600020541015610217576040517f08c379a000000000000000000000000000000000000000000000000000000000815260040161020e906104f0565b60405180910390fd5b8273ffffffffffffffffffffffffffffffffffffffff163373ffffffffffffffffffffffffffffffffffffffff161415610286576040517f08c379a000000000000000000000000000000000000000000000000000000000815260040161027d906104d0565b60405180910390fd5b81600160003373ffffffffffffffffffffffffffffffffffffffff1673ffffffffffffffffffffffffffffffffffffffff16815260200190815260200160002060008282546102d59190610592565b9250508190555081600160008573ffffffffffffffffffffffffffffffffffffffff1673ffffffffffffffffffffffffffffffffffffffff168152602001908152602001600020600082825461032b919061053c565b9250508190555092915050565b6000813590506103478161063d565b92915050565b60008135905061035c81610654565b92915050565b60006020828403121561037457600080fd5b600061038284828501610338565b91505092915050565b6000806040838503121561039e57600080fd5b60006103ac85828601610338565b92505060206103bd8582860161034d565b9150509250929050565b6103d0816105c6565b82525050565b6103df816105d8565b82525050565b60006103f260238361052b565b91507f596f752063616e6e6f74207472616e7366657220746f2073616d652077616c6c60008301527f65742100000000000000000000000000000000000000000000000000000000006020830152604082019050919050565b600061045860158361052b565b91507f496e73756666696369656e742042616c616e63652100000000000000000000006000830152602082019050919050565b61049481610604565b82525050565b60006020820190506104af60008301846103c7565b92915050565b60006020820190506104ca60008301846103d6565b92915050565b600060208201905081810360008301526104e9816103e5565b9050919050565b600060208201905081810360008301526105098161044b565b9050919050565b6000602082019050610525600083018461048b565b92915050565b600082825260208201905092915050565b600061054782610604565b915061055283610604565b9250827fffffffffffffffffffffffffffffffffffffffffffffffffffffffffffffffff038211156105875761058661060e565b5b828201905092915050565b600061059d82610604565b91506105a883610604565b9250828210156105bb576105ba61060e565b5b828203905092915050565b60006105d1826105e4565b9050919050565b60008115159050919050565b600073ffffffffffffffffffffffffffffffffffffffff82169050919050565b6000819050919050565b7f4e487b7100000000000000000000000000000000000000000000000000000000600052601160045260246000fd5b610646816105c6565b811461065157600080fd5b50565b61065d81610604565b811461066857600080fd5b5056fea264697066735822122080d5f06234d99f73ddfab792e8b5433df7fd0973dd9ec70b26867c4125a6698764736f6c63430008000033",
  "linkReferences": {},
  "deployedLinkReferences": {}
}