{
  "_format": "hh-sol-artifact-1",
  "contractName": "MyToken",
  "sourceName": "contracts/MyToken.sol",
  "abi": [
    {
      "inputs": [
        {
          "internalType": "string",
          "name": "_name",
          "type": "string"
        },
        {
          "internalType": "string",
          "name": "_symbol",
          "type": "string"
        },
        {
          "internalType": "uint8",
          "name": "_decimals",
          "type": "uint8"
        },
        {
          "internalType": "uint256",
          "name": "_totalSupply",
          "type": "uint256"
        }
      ],
      "stateMutability": "nonpayable",
      "type": "constructor"
    },
    {
      "anonymous": false,
      "inputs": [
        {
          "indexed": true,
          "internalType": "address",
          "name": "_owner",
          "type": "address"
        },
        {
          "indexed": true,
          "internalType": "address",
          "name": "_spender",
          "type": "address"
        },
        {
          "indexed": false,
          "internalType": "uint256",
          "name": "_value",
          "type": "uint256"
        }
      ],
      "name": "Approval",
      "type": "event"
    },
    {
      "anonymous": false,
      "inputs": [
        {
          "indexed": true,
          "internalType": "address",
          "name": "_from",
          "type": "address"
        },
        {
          "indexed": true,
          "internalType": "address",
          "name": "_to",
          "type": "address"
        },
        {
          "indexed": false,
          "internalType": "uint256",
          "name": "_value",
          "type": "uint256"
        }
      ],
      "name": "Transfer",
      "type": "event"
    },
    {
      "inputs": [
        {
          "internalType": "address",
          "name": "_owner",
          "type": "address"
        },
        {
          "internalType": "address",
          "name": "_spender",
          "type": "address"
        }
      ],
      "name": "allowance",
      "outputs": [
        {
          "internalType": "uint256",
          "name": "remaining",
          "type": "uint256"
        }
      ],
      "stateMutability": "view",
      "type": "function"
    },
    {
      "inputs": [
        {
          "internalType": "address",
          "name": "_spender",
          "type": "address"
        },
        {
          "internalType": "uint256",
          "name": "_value",
          "type": "uint256"
        }
      ],
      "name": "approve",
      "outputs": [
        {
          "internalType": "bool",
          "name": "success",
          "type": "bool"
        }
      ],
      "stateMutability": "nonpayable",
      "type": "function"
    },
    {
      "inputs": [
        {
          "internalType": "address",
          "name": "_owner",
          "type": "address"
        }
      ],
      "name": "balanceOf",
      "outputs": [
        {
          "internalType": "uint256",
          "name": "",
          "type": "uint256"
        }
      ],
      "stateMutability": "view",
      "type": "function"
    },
    {
      "inputs": [],
      "name": "claim",
      "outputs": [
        {
          "internalType": "bool",
          "name": "success",
          "type": "bool"
        }
      ],
      "stateMutability": "nonpayable",
      "type": "function"
    },
    {
      "inputs": [
        {
          "internalType": "address",
          "name": "_receiver",
          "type": "address"
        }
      ],
      "name": "claimable",
      "outputs": [
        {
          "internalType": "uint256",
          "name": "",
          "type": "uint256"
        }
      ],
      "stateMutability": "view",
      "type": "function"
    },
    {
      "inputs": [],
      "name": "decimals",
      "outputs": [
        {
          "internalType": "uint8",
          "name": "",
          "type": "uint8"
        }
      ],
      "stateMutability": "view",
      "type": "function"
    },
    {
      "inputs": [],
      "name": "lockedSupply",
      "outputs": [
        {
          "internalType": "uint256",
          "name": "",
          "type": "uint256"
        }
      ],
      "stateMutability": "view",
      "type": "function"
    },
    {
      "inputs": [
        {
          "internalType": "address",
          "name": "_receiver",
          "type": "address"
        }
      ],
      "name": "lockedUntil",
      "outputs": [
        {
          "internalType": "uint256",
          "name": "",
          "type": "uint256"
        }
      ],
      "stateMutability": "view",
      "type": "function"
    },
    {
      "inputs": [],
      "name": "owner",
      "outputs": [
        {
          "internalType": "address payable",
          "name": "",
          "type": "address"
        }
      ],
      "stateMutability": "view",
      "type": "function"
    },
    {
      "inputs": [
        {
          "internalType": "address",
          "name": "_receiver",
          "type": "address"
        },
        {
          "internalType": "uint256",
          "name": "_value",
          "type": "uint256"
        },
        {
          "internalType": "uint256",
          "name": "_lockperiod",
          "type": "uint256"
        }
      ],
      "name": "reserve",
      "outputs": [
        {
          "internalType": "bool",
          "name": "",
          "type": "bool"
        }
      ],
      "stateMutability": "nonpayable",
      "type": "function"
    },
    {
      "inputs": [],
      "name": "totalSupply",
      "outputs": [
        {
          "internalType": "uint256",
          "name": "",
          "type": "uint256"
        }
      ],
      "stateMutability": "view",
      "type": "function"
    },
    {
      "inputs": [
        {
          "internalType": "address",
          "name": "_to",
          "type": "address"
        },
        {
          "internalType": "uint256",
          "name": "_value",
          "type": "uint256"
        }
      ],
      "name": "transfer",
      "outputs": [
        {
          "internalType": "bool",
          "name": "success",
          "type": "bool"
        }
      ],
      "stateMutability": "nonpayable",
      "type": "function"
    },
    {
      "inputs": [
        {
          "internalType": "address",
          "name": "_from",
          "type": "address"
        },
        {
          "internalType": "address",
          "name": "_to",
          "type": "address"
        },
        {
          "internalType": "uint256",
          "name": "_value",
          "type": "uint256"
        }
      ],
      "name": "transferFrom",
      "outputs": [
        {
          "internalType": "bool",
          "name": "success",
          "type": "bool"
        }
      ],
      "stateMutability": "nonpayable",
      "type": "function"
    }
  ],
  "bytecode": "0x60806040523480156200001157600080fd5b5060405162001a8738038062001a8783398181016040528101906200003791906200028c565b336000806101000a81548173ffffffffffffffffffffffffffffffffffffffff021916908373ffffffffffffffffffffffffffffffffffffffff16021790555083600490805190602001906200008f9291906200013c565b508260059080519060200190620000a89291906200013c565b5081600860006101000a81548160ff021916908360ff16021790555080600681905550600654600160008060009054906101000a900473ffffffffffffffffffffffffffffffffffffffff1673ffffffffffffffffffffffffffffffffffffffff1673ffffffffffffffffffffffffffffffffffffffff1681526020019081526020016000208190555050505050620004a6565b8280546200014a90620003de565b90600052602060002090601f0160209004810192826200016e5760008555620001ba565b82601f106200018957805160ff1916838001178555620001ba565b82800160010185558215620001ba579182015b82811115620001b95782518255916020019190600101906200019c565b5b509050620001c99190620001cd565b5090565b5b80821115620001e8576000816000905550600101620001ce565b5090565b600062000203620001fd846200035e565b6200032a565b9050828152602081018484840111156200021c57600080fd5b62000229848285620003a8565b509392505050565b600082601f8301126200024357600080fd5b815162000255848260208601620001ec565b91505092915050565b6000815190506200026f8162000472565b92915050565b60008151905062000286816200048c565b92915050565b60008060008060808587031215620002a357600080fd5b600085015167ffffffffffffffff811115620002be57600080fd5b620002cc8782880162000231565b945050602085015167ffffffffffffffff811115620002ea57600080fd5b620002f88782880162000231565b93505060406200030b8782880162000275565b92505060606200031e878288016200025e565b91505092959194509250565b6000604051905081810181811067ffffffffffffffff8211171562000354576200035362000443565b5b8060405250919050565b600067ffffffffffffffff8211156200037c576200037b62000443565b5b601f19601f8301169050602081019050919050565b6000819050919050565b600060ff82169050919050565b60005b83811015620003c8578082015181840152602081019050620003ab565b83811115620003d8576000848401525b50505050565b60006002820490506001821680620003f757607f821691505b602082108114156200040e576200040d62000414565b5b50919050565b7f4e487b7100000000000000000000000000000000000000000000000000000000600052602260045260246000fd5b7f4e487b7100000000000000000000000000000000000000000000000000000000600052604160045260246000fd5b6200047d8162000391565b81146200048957600080fd5b50565b62000497816200039b565b8114620004a357600080fd5b50565b6115d180620004b66000396000f3fe608060405234801561001057600080fd5b50600436106100cf5760003560e01c806370a082311161008c5780639e29dd36116100665780639e29dd361461023c578063a9059cbb1461026c578063ca5c7b911461029c578063dd62ed3e146102ba576100cf565b806370a08231146101be5780638da5cb5b146101ee5780639bc289f11461020c576100cf565b8063095ea7b3146100d457806318160ddd1461010457806323b872dd14610122578063313ce56714610152578063402914f5146101705780634e71d92d146101a0575b600080fd5b6100ee60048036038101906100e99190611043565b6102ea565b6040516100fb919061130b565b60405180910390f35b61010c61044b565b6040516101199190611406565b60405180910390f35b61013c60048036038101906101379190610ff4565b610455565b604051610149919061130b565b60405180910390f35b61015a6105ce565b6040516101679190611421565b60405180910390f35b61018a60048036038101906101859190610f8f565b6105e5565b6040516101979190611406565b60405180910390f35b6101a8610631565b6040516101b5919061130b565b60405180910390f35b6101d860048036038101906101d39190610f8f565b610796565b6040516101e59190611406565b60405180910390f35b6101f66107df565b60405161020391906112f0565b60405180910390f35b61022660048036038101906102219190610f8f565b610803565b6040516102339190611406565b60405180910390f35b6102566004803603810190610251919061107f565b61084f565b604051610263919061130b565b60405180910390f35b61028660048036038101906102819190611043565b6109fe565b604051610293919061130b565b60405180910390f35b6102a4610b06565b6040516102b19190611406565b60405180910390f35b6102d460048036038101906102cf9190610fb8565b610b10565b6040516102e19190611406565b60405180910390f35b60008273ffffffffffffffffffffffffffffffffffffffff163373ffffffffffffffffffffffffffffffffffffffff16141561035b576040517f08c379a0000000000000000000000000000000000000000000000000000000008152600401610352906113c6565b60405180910390fd5b81600260003373ffffffffffffffffffffffffffffffffffffffff1673ffffffffffffffffffffffffffffffffffffffff16815260200190815260200160002060008573ffffffffffffffffffffffffffffffffffffffff1673ffffffffffffffffffffffffffffffffffffffff168152602001908152602001600020819055508273ffffffffffffffffffffffffffffffffffffffff163373ffffffffffffffffffffffffffffffffffffffff167f8c5be1e5ebec7d5bd14f71427d1e84f3dd0314c0f7b2291e5b200ac8c7c3b925846040516104399190611406565b60405180910390a36001905092915050565b6000600654905090565b6000816104628585610b10565b10156104a3576040517f08c379a000000000000000000000000000000000000000000000000000000000815260040161049a90611326565b60405180910390fd5b81600160008673ffffffffffffffffffffffffffffffffffffffff1673ffffffffffffffffffffffffffffffffffffffff168152602001908152602001600020541015610525576040517f08c379a000000000000000000000000000000000000000000000000000000000815260040161051c906113e6565b60405180910390fd5b81600260008673ffffffffffffffffffffffffffffffffffffffff1673ffffffffffffffffffffffffffffffffffffffff16815260200190815260200160002060008573ffffffffffffffffffffffffffffffffffffffff1673ffffffffffffffffffffffffffffffffffffffff16815260200190815260200160002060008282546105b191906114a3565b925050819055506105c3848484610b97565b600190509392505050565b6000600860009054906101000a900460ff16905090565b6000600360008373ffffffffffffffffffffffffffffffffffffffff1673ffffffffffffffffffffffffffffffffffffffff168152602001908152602001600020600001549050919050565b600042600360003373ffffffffffffffffffffffffffffffffffffffff1673ffffffffffffffffffffffffffffffffffffffff1681526020019081526020016000206001015411156106b8576040517f08c379a00000000000000000000000000000000000000000000000000000000081526004016106af90611346565b60405180910390fd5b60008054906101000a900473ffffffffffffffffffffffffffffffffffffffff1673ffffffffffffffffffffffffffffffffffffffff163373ffffffffffffffffffffffffffffffffffffffff16141561071957610714610e09565b61078f565b61078660008054906101000a900473ffffffffffffffffffffffffffffffffffffffff1633600360003373ffffffffffffffffffffffffffffffffffffffff1673ffffffffffffffffffffffffffffffffffffffff16815260200190815260200160002060000154610b97565b61078e610e09565b5b6001905090565b6000600160008373ffffffffffffffffffffffffffffffffffffffff1673ffffffffffffffffffffffffffffffffffffffff168152602001908152602001600020549050919050565b60008054906101000a900473ffffffffffffffffffffffffffffffffffffffff1681565b6000600360008373ffffffffffffffffffffffffffffffffffffffff1673ffffffffffffffffffffffffffffffffffffffff168152602001908152602001600020600101549050919050565b600082600160003373ffffffffffffffffffffffffffffffffffffffff1673ffffffffffffffffffffffffffffffffffffffff1681526020019081526020016000205410156108d3576040517f08c379a00000000000000000000000000000000000000000000000000000000081526004016108ca906113e6565b60405180910390fd5b6000600360008673ffffffffffffffffffffffffffffffffffffffff1673ffffffffffffffffffffffffffffffffffffffff1681526020019081526020016000206000015414610958576040517f08c379a000000000000000000000000000000000000000000000000000000000815260040161094f90611386565b60405180910390fd5b60008054906101000a900473ffffffffffffffffffffffffffffffffffffffff1673ffffffffffffffffffffffffffffffffffffffff163373ffffffffffffffffffffffffffffffffffffffff1614156109bc576109b7848484610eae565b6109f3565b6109e73360008054906101000a900473ffffffffffffffffffffffffffffffffffffffff1685610b97565b6109f2848484610eae565b5b600190509392505050565b600081600160003373ffffffffffffffffffffffffffffffffffffffff1673ffffffffffffffffffffffffffffffffffffffff168152602001908152602001600020541015610a82576040517f08c379a0000000000000000000000000000000000000000000000000000000008152600401610a79906113e6565b60405180910390fd5b8273ffffffffffffffffffffffffffffffffffffffff163373ffffffffffffffffffffffffffffffffffffffff161415610af1576040517f08c379a0000000000000000000000000000000000000000000000000000000008152600401610ae8906113a6565b60405180910390fd5b610afc338484610b97565b6001905092915050565b6000600754905090565b6000600260008473ffffffffffffffffffffffffffffffffffffffff1673ffffffffffffffffffffffffffffffffffffffff16815260200190815260200160002060008373ffffffffffffffffffffffffffffffffffffffff1673ffffffffffffffffffffffffffffffffffffffff16815260200190815260200160002054905092915050565b60008054906101000a900473ffffffffffffffffffffffffffffffffffffffff1673ffffffffffffffffffffffffffffffffffffffff163373ffffffffffffffffffffffffffffffffffffffff16148015610c3d575060008054906101000a900473ffffffffffffffffffffffffffffffffffffffff1673ffffffffffffffffffffffffffffffffffffffff168373ffffffffffffffffffffffffffffffffffffffff16145b15610cf357600754600160008060009054906101000a900473ffffffffffffffffffffffffffffffffffffffff1673ffffffffffffffffffffffffffffffffffffffff1673ffffffffffffffffffffffffffffffffffffffff16815260200190815260200160002054610cb091906114a3565b811115610cf2576040517f08c379a0000000000000000000000000000000000000000000000000000000008152600401610ce990611366565b60405180910390fd5b5b80600160008573ffffffffffffffffffffffffffffffffffffffff1673ffffffffffffffffffffffffffffffffffffffff1681526020019081526020016000206000828254610d4291906114a3565b9250508190555080600160008473ffffffffffffffffffffffffffffffffffffffff1673ffffffffffffffffffffffffffffffffffffffff1681526020019081526020016000206000828254610d98919061144d565b925050819055508173ffffffffffffffffffffffffffffffffffffffff168373ffffffffffffffffffffffffffffffffffffffff167fddf252ad1be2c89b69c2b068fc378daa952ba7f163c4a11628f55a4df523b3ef83604051610dfc9190611406565b60405180910390a3505050565b600360003373ffffffffffffffffffffffffffffffffffffffff1673ffffffffffffffffffffffffffffffffffffffff1681526020019081526020016000206000015460076000828254610e5d91906114a3565b925050819055506000600360003373ffffffffffffffffffffffffffffffffffffffff1673ffffffffffffffffffffffffffffffffffffffff16815260200190815260200160002060000181905550565b81600360008573ffffffffffffffffffffffffffffffffffffffff1673ffffffffffffffffffffffffffffffffffffffff168152602001908152602001600020600001819055508042610f01919061144d565b600360008573ffffffffffffffffffffffffffffffffffffffff1673ffffffffffffffffffffffffffffffffffffffff168152602001908152602001600020600101819055508160076000828254610f59919061144d565b92505081905550505050565b600081359050610f748161156d565b92915050565b600081359050610f8981611584565b92915050565b600060208284031215610fa157600080fd5b6000610faf84828501610f65565b91505092915050565b60008060408385031215610fcb57600080fd5b6000610fd985828601610f65565b9250506020610fea85828601610f65565b9150509250929050565b60008060006060848603121561100957600080fd5b600061101786828701610f65565b935050602061102886828701610f65565b925050604061103986828701610f7a565b9150509250925092565b6000806040838503121561105657600080fd5b600061106485828601610f65565b925050602061107585828601610f7a565b9150509250929050565b60008060006060848603121561109457600080fd5b60006110a286828701610f65565b93505060206110b386828701610f7a565b92505060406110c486828701610f7a565b9150509250925092565b6110d7816114e9565b82525050565b6110e6816114fb565b82525050565b60006110f9601c8361143c565b91507f416c6c6f77616e636520616d6f756e7420697320746f6f206c6f7721000000006000830152602082019050919050565b6000611139601c8361143c565b91507f4c6f636b20706572696f64206973206e6f74206f7665722079657421000000006000830152602082019050919050565b600061117960148361143c565b91507f42616c616e636520756e617661696c61626c65210000000000000000000000006000830152602082019050919050565b60006111b960108361143c565b91507f416c7265616479207265736572766564000000000000000000000000000000006000830152602082019050919050565b60006111f960238361143c565b91507f596f752063616e6e6f74207472616e7366657220746f2073616d652077616c6c60008301527f65742100000000000000000000000000000000000000000000000000000000006020830152604082019050919050565b600061125f601e8361143c565b91507f43616e6e6f7420417070726f76652053616d65204164647265737365732100006000830152602082019050919050565b600061129f60158361143c565b91507f496e73756666696369656e742042616c616e63652100000000000000000000006000830152602082019050919050565b6112db81611527565b82525050565b6112ea81611531565b82525050565b600060208201905061130560008301846110ce565b92915050565b600060208201905061132060008301846110dd565b92915050565b6000602082019050818103600083015261133f816110ec565b9050919050565b6000602082019050818103600083015261135f8161112c565b9050919050565b6000602082019050818103600083015261137f8161116c565b9050919050565b6000602082019050818103600083015261139f816111ac565b9050919050565b600060208201905081810360008301526113bf816111ec565b9050919050565b600060208201905081810360008301526113df81611252565b9050919050565b600060208201905081810360008301526113ff81611292565b9050919050565b600060208201905061141b60008301846112d2565b92915050565b600060208201905061143660008301846112e1565b92915050565b600082825260208201905092915050565b600061145882611527565b915061146383611527565b9250827fffffffffffffffffffffffffffffffffffffffffffffffffffffffffffffffff038211156114985761149761153e565b5b828201905092915050565b60006114ae82611527565b91506114b983611527565b9250828210156114cc576114cb61153e565b5b828203905092915050565b60006114e282611507565b9050919050565b60006114f482611507565b9050919050565b60008115159050919050565b600073ffffffffffffffffffffffffffffffffffffffff82169050919050565b6000819050919050565b600060ff82169050919050565b7f4e487b7100000000000000000000000000000000000000000000000000000000600052601160045260246000fd5b611576816114d7565b811461158157600080fd5b50565b61158d81611527565b811461159857600080fd5b5056fea2646970667358221220d30982c201d684e47b3d4b3b8914a8d2a636f8b56d9f384356038b8c5f06027b64736f6c63430008000033",
  "linkReferences": {},
  "deployedLinkReferences": {}
}