{
  "_format": "hh-sol-artifact-1",
  "contractName": "MyToken",
  "sourceName": "contracts/MyToken.sol",
  "abi": [
    {
      "inputs": [
        {
          "internalType": "string",
          "name": "_name",
          "type": "string"
        },
        {
          "internalType": "string",
          "name": "_symbol",
          "type": "string"
        },
        {
          "internalType": "uint256",
          "name": "_totalSupply",
          "type": "uint256"
        }
      ],
      "stateMutability": "nonpayable",
      "type": "constructor"
    },
    {
      "anonymous": false,
      "inputs": [
        {
          "indexed": true,
          "internalType": "address",
          "name": "_owner",
          "type": "address"
        },
        {
          "indexed": true,
          "internalType": "address",
          "name": "_spender",
          "type": "address"
        },
        {
          "indexed": false,
          "internalType": "uint256",
          "name": "_value",
          "type": "uint256"
        }
      ],
      "name": "Approval",
      "type": "event"
    },
    {
      "anonymous": false,
      "inputs": [
        {
          "indexed": true,
          "internalType": "address",
          "name": "_from",
          "type": "address"
        },
        {
          "indexed": true,
          "internalType": "address",
          "name": "_to",
          "type": "address"
        },
        {
          "indexed": false,
          "internalType": "uint256",
          "name": "_value",
          "type": "uint256"
        }
      ],
      "name": "Transfer",
      "type": "event"
    },
    {
      "inputs": [
        {
          "internalType": "address",
          "name": "_owner",
          "type": "address"
        },
        {
          "internalType": "address",
          "name": "_spender",
          "type": "address"
        }
      ],
      "name": "allowance",
      "outputs": [
        {
          "internalType": "uint256",
          "name": "remaining",
          "type": "uint256"
        }
      ],
      "stateMutability": "view",
      "type": "function"
    },
    {
      "inputs": [
        {
          "internalType": "address",
          "name": "_spender",
          "type": "address"
        },
        {
          "internalType": "uint256",
          "name": "_value",
          "type": "uint256"
        }
      ],
      "name": "approve",
      "outputs": [
        {
          "internalType": "bool",
          "name": "success",
          "type": "bool"
        }
      ],
      "stateMutability": "nonpayable",
      "type": "function"
    },
    {
      "inputs": [
        {
          "internalType": "address",
          "name": "_owner",
          "type": "address"
        }
      ],
      "name": "balanceOf",
      "outputs": [
        {
          "internalType": "uint256",
          "name": "",
          "type": "uint256"
        }
      ],
      "stateMutability": "view",
      "type": "function"
    },
    {
      "inputs": [],
      "name": "claim",
      "outputs": [
        {
          "internalType": "bool",
          "name": "success",
          "type": "bool"
        }
      ],
      "stateMutability": "nonpayable",
      "type": "function"
    },
    {
      "inputs": [
        {
          "internalType": "address",
          "name": "_receiver",
          "type": "address"
        }
      ],
      "name": "claimable",
      "outputs": [
        {
          "internalType": "uint256",
          "name": "",
          "type": "uint256"
        }
      ],
      "stateMutability": "view",
      "type": "function"
    },
    {
      "inputs": [],
      "name": "lockedSupply",
      "outputs": [
        {
          "internalType": "uint256",
          "name": "",
          "type": "uint256"
        }
      ],
      "stateMutability": "view",
      "type": "function"
    },
    {
      "inputs": [],
      "name": "lockedSupply_",
      "outputs": [
        {
          "internalType": "uint256",
          "name": "",
          "type": "uint256"
        }
      ],
      "stateMutability": "view",
      "type": "function"
    },
    {
      "inputs": [
        {
          "internalType": "address",
          "name": "_receiver",
          "type": "address"
        }
      ],
      "name": "lockedUntil",
      "outputs": [
        {
          "internalType": "uint256",
          "name": "",
          "type": "uint256"
        }
      ],
      "stateMutability": "view",
      "type": "function"
    },
    {
      "inputs": [],
      "name": "owner",
      "outputs": [
        {
          "internalType": "address",
          "name": "",
          "type": "address"
        }
      ],
      "stateMutability": "view",
      "type": "function"
    },
    {
      "inputs": [
        {
          "internalType": "address",
          "name": "_receiver",
          "type": "address"
        },
        {
          "internalType": "uint256",
          "name": "_value",
          "type": "uint256"
        },
        {
          "internalType": "uint256",
          "name": "_lockperiod",
          "type": "uint256"
        }
      ],
      "name": "reserveLockFor",
      "outputs": [
        {
          "internalType": "bool",
          "name": "",
          "type": "bool"
        }
      ],
      "stateMutability": "nonpayable",
      "type": "function"
    },
    {
      "inputs": [],
      "name": "totalSupply",
      "outputs": [
        {
          "internalType": "uint256",
          "name": "",
          "type": "uint256"
        }
      ],
      "stateMutability": "view",
      "type": "function"
    },
    {
      "inputs": [],
      "name": "totalSupply_",
      "outputs": [
        {
          "internalType": "uint256",
          "name": "",
          "type": "uint256"
        }
      ],
      "stateMutability": "view",
      "type": "function"
    },
    {
      "inputs": [
        {
          "internalType": "address",
          "name": "_to",
          "type": "address"
        },
        {
          "internalType": "uint256",
          "name": "_value",
          "type": "uint256"
        }
      ],
      "name": "transfer",
      "outputs": [
        {
          "internalType": "bool",
          "name": "success",
          "type": "bool"
        }
      ],
      "stateMutability": "nonpayable",
      "type": "function"
    },
    {
      "inputs": [
        {
          "internalType": "address",
          "name": "_from",
          "type": "address"
        },
        {
          "internalType": "address",
          "name": "_to",
          "type": "address"
        },
        {
          "internalType": "uint256",
          "name": "_value",
          "type": "uint256"
        }
      ],
      "name": "transferFrom",
      "outputs": [
        {
          "internalType": "bool",
          "name": "success",
          "type": "bool"
        }
      ],
      "stateMutability": "nonpayable",
      "type": "function"
    }
  ],
  "bytecode": "0x60806040523480156200001157600080fd5b506040516200180638038062001806833981810160405281019062000037919062000259565b336000806101000a81548173ffffffffffffffffffffffffffffffffffffffff021916908373ffffffffffffffffffffffffffffffffffffffff16021790555082600490805190602001906200008f92919062000120565b508160059080519060200190620000a892919062000120565b5080600681905550600654600160008060009054906101000a900473ffffffffffffffffffffffffffffffffffffffff1673ffffffffffffffffffffffffffffffffffffffff1673ffffffffffffffffffffffffffffffffffffffff1681526020019081526020016000208190555050505062000436565b8280546200012e9062000388565b90600052602060002090601f0160209004810192826200015257600085556200019e565b82601f106200016d57805160ff19168380011785556200019e565b828001600101855582156200019e579182015b828111156200019d57825182559160200191906001019062000180565b5b509050620001ad9190620001b1565b5090565b5b80821115620001cc576000816000905550600101620001b2565b5090565b6000620001e7620001e18462000315565b620002e1565b9050828152602081018484840111156200020057600080fd5b6200020d84828562000352565b509392505050565b600082601f8301126200022757600080fd5b815162000239848260208601620001d0565b91505092915050565b60008151905062000253816200041c565b92915050565b6000806000606084860312156200026f57600080fd5b600084015167ffffffffffffffff8111156200028a57600080fd5b620002988682870162000215565b935050602084015167ffffffffffffffff811115620002b657600080fd5b620002c48682870162000215565b9250506040620002d78682870162000242565b9150509250925092565b6000604051905081810181811067ffffffffffffffff821117156200030b576200030a620003ed565b5b8060405250919050565b600067ffffffffffffffff821115620003335762000332620003ed565b5b601f19601f8301169050602081019050919050565b6000819050919050565b60005b838110156200037257808201518184015260208101905062000355565b8381111562000382576000848401525b50505050565b60006002820490506001821680620003a157607f821691505b60208210811415620003b857620003b7620003be565b5b50919050565b7f4e487b7100000000000000000000000000000000000000000000000000000000600052602260045260246000fd5b7f4e487b7100000000000000000000000000000000000000000000000000000000600052604160045260246000fd5b620004278162000348565b81146200043357600080fd5b50565b6113c080620004466000396000f3fe608060405234801561001057600080fd5b50600436106100ea5760003560e01c80638da5cb5b1161008c578063a9059cbb11610066578063a9059cbb14610275578063ca5c7b91146102a5578063dd62ed3e146102c3578063ed97419c146102f3576100ea565b80638da5cb5b1461020957806395dd08d1146102275780639bc289f114610245576100ea565b8063324536eb116100c8578063324536eb1461016d578063402914f51461018b5780634e71d92d146101bb57806370a08231146101d9576100ea565b8063095ea7b3146100ef57806318160ddd1461011f57806323b872dd1461013d575b600080fd5b61010960048036038101906101049190610e7b565b610323565b6040516101169190611134565b60405180910390f35b610127610484565b604051610134919061122f565b60405180910390f35b61015760048036038101906101529190610e2c565b61048e565b6040516101649190611134565b60405180910390f35b61017561066c565b604051610182919061122f565b60405180910390f35b6101a560048036038101906101a09190610dc7565b610672565b6040516101b2919061122f565b60405180910390f35b6101c36106be565b6040516101d09190611134565b60405180910390f35b6101f360048036038101906101ee9190610dc7565b61085c565b604051610200919061122f565b60405180910390f35b6102116108a5565b60405161021e9190611119565b60405180910390f35b61022f6108c9565b60405161023c919061122f565b60405180910390f35b61025f600480360381019061025a9190610dc7565b6108cf565b60405161026c919061122f565b60405180910390f35b61028f600480360381019061028a9190610e7b565b61091b565b60405161029c9190611134565b60405180910390f35b6102ad610a88565b6040516102ba919061122f565b60405180910390f35b6102dd60048036038101906102d89190610df0565b610a92565b6040516102ea919061122f565b60405180910390f35b61030d60048036038101906103089190610eb7565b610b19565b60405161031a9190611134565b60405180910390f35b60008273ffffffffffffffffffffffffffffffffffffffff163373ffffffffffffffffffffffffffffffffffffffff161415610394576040517f08c379a000000000000000000000000000000000000000000000000000000000815260040161038b906111ef565b60405180910390fd5b81600260003373ffffffffffffffffffffffffffffffffffffffff1673ffffffffffffffffffffffffffffffffffffffff16815260200190815260200160002060008573ffffffffffffffffffffffffffffffffffffffff1673ffffffffffffffffffffffffffffffffffffffff168152602001908152602001600020819055508273ffffffffffffffffffffffffffffffffffffffff163373ffffffffffffffffffffffffffffffffffffffff167f8c5be1e5ebec7d5bd14f71427d1e84f3dd0314c0f7b2291e5b200ac8c7c3b92584604051610472919061122f565b60405180910390a36001905092915050565b6000600654905090565b60008161049b8585610a92565b10156104dc576040517f08c379a00000000000000000000000000000000000000000000000000000000081526004016104d39061114f565b60405180910390fd5b81600160008673ffffffffffffffffffffffffffffffffffffffff1673ffffffffffffffffffffffffffffffffffffffff16815260200190815260200160002054101561055e576040517f08c379a00000000000000000000000000000000000000000000000000000000081526004016105559061120f565b60405180910390fd5b610569848484610cec565b81600260008673ffffffffffffffffffffffffffffffffffffffff1673ffffffffffffffffffffffffffffffffffffffff16815260200190815260200160002060008573ffffffffffffffffffffffffffffffffffffffff1673ffffffffffffffffffffffffffffffffffffffff16815260200190815260200160002060008282546105f591906112b1565b925050819055508273ffffffffffffffffffffffffffffffffffffffff168473ffffffffffffffffffffffffffffffffffffffff167fddf252ad1be2c89b69c2b068fc378daa952ba7f163c4a11628f55a4df523b3ef84604051610659919061122f565b60405180910390a3600190509392505050565b60065481565b6000600360008373ffffffffffffffffffffffffffffffffffffffff1673ffffffffffffffffffffffffffffffffffffffff168152602001908152602001600020600001549050919050565b600042600360003373ffffffffffffffffffffffffffffffffffffffff1673ffffffffffffffffffffffffffffffffffffffff168152602001908152602001600020600101541115610745576040517f08c379a000000000000000000000000000000000000000000000000000000000815260040161073c9061118f565b60405180910390fd5b6107b260008054906101000a900473ffffffffffffffffffffffffffffffffffffffff1633600360003373ffffffffffffffffffffffffffffffffffffffff1673ffffffffffffffffffffffffffffffffffffffff16815260200190815260200160002060000154610cec565b6000600360003373ffffffffffffffffffffffffffffffffffffffff1673ffffffffffffffffffffffffffffffffffffffff16815260200190815260200160002060000181905550600360003373ffffffffffffffffffffffffffffffffffffffff1673ffffffffffffffffffffffffffffffffffffffff168152602001908152602001600020600001546007600082825461084e91906112b1565b925050819055506001905090565b6000600160008373ffffffffffffffffffffffffffffffffffffffff1673ffffffffffffffffffffffffffffffffffffffff168152602001908152602001600020549050919050565b60008054906101000a900473ffffffffffffffffffffffffffffffffffffffff1681565b60075481565b6000600360008373ffffffffffffffffffffffffffffffffffffffff1673ffffffffffffffffffffffffffffffffffffffff168152602001908152602001600020600101549050919050565b600081600160003373ffffffffffffffffffffffffffffffffffffffff1673ffffffffffffffffffffffffffffffffffffffff16815260200190815260200160002054101561099f576040517f08c379a00000000000000000000000000000000000000000000000000000000081526004016109969061120f565b60405180910390fd5b8273ffffffffffffffffffffffffffffffffffffffff163373ffffffffffffffffffffffffffffffffffffffff161415610a0e576040517f08c379a0000000000000000000000000000000000000000000000000000000008152600401610a05906111cf565b60405180910390fd5b610a19338484610cec565b8273ffffffffffffffffffffffffffffffffffffffff163373ffffffffffffffffffffffffffffffffffffffff167fddf252ad1be2c89b69c2b068fc378daa952ba7f163c4a11628f55a4df523b3ef84604051610a76919061122f565b60405180910390a36001905092915050565b6000600754905090565b6000600260008473ffffffffffffffffffffffffffffffffffffffff1673ffffffffffffffffffffffffffffffffffffffff16815260200190815260200160002060008373ffffffffffffffffffffffffffffffffffffffff1673ffffffffffffffffffffffffffffffffffffffff16815260200190815260200160002054905092915050565b60008060009054906101000a900473ffffffffffffffffffffffffffffffffffffffff1673ffffffffffffffffffffffffffffffffffffffff163373ffffffffffffffffffffffffffffffffffffffff1614610baa576040517f08c379a0000000000000000000000000000000000000000000000000000000008152600401610ba19061116f565b60405180910390fd5b6000600360008673ffffffffffffffffffffffffffffffffffffffff1673ffffffffffffffffffffffffffffffffffffffff1681526020019081526020016000206000015414610c2f576040517f08c379a0000000000000000000000000000000000000000000000000000000008152600401610c26906111af565b60405180910390fd5b82600360008673ffffffffffffffffffffffffffffffffffffffff1673ffffffffffffffffffffffffffffffffffffffff168152602001908152602001600020600001819055508142610c82919061125b565b600360008673ffffffffffffffffffffffffffffffffffffffff1673ffffffffffffffffffffffffffffffffffffffff168152602001908152602001600020600101819055508260076000828254610cda919061125b565b92505081905550600190509392505050565b80600160008573ffffffffffffffffffffffffffffffffffffffff1673ffffffffffffffffffffffffffffffffffffffff1681526020019081526020016000206000828254610d3b91906112b1565b9250508190555080600160008473ffffffffffffffffffffffffffffffffffffffff1673ffffffffffffffffffffffffffffffffffffffff1681526020019081526020016000206000828254610d91919061125b565b92505081905550505050565b600081359050610dac8161135c565b92915050565b600081359050610dc181611373565b92915050565b600060208284031215610dd957600080fd5b6000610de784828501610d9d565b91505092915050565b60008060408385031215610e0357600080fd5b6000610e1185828601610d9d565b9250506020610e2285828601610d9d565b9150509250929050565b600080600060608486031215610e4157600080fd5b6000610e4f86828701610d9d565b9350506020610e6086828701610d9d565b9250506040610e7186828701610db2565b9150509250925092565b60008060408385031215610e8e57600080fd5b6000610e9c85828601610d9d565b9250506020610ead85828601610db2565b9150509250929050565b600080600060608486031215610ecc57600080fd5b6000610eda86828701610d9d565b9350506020610eeb86828701610db2565b9250506040610efc86828701610db2565b9150509250925092565b610f0f816112e5565b82525050565b610f1e816112f7565b82525050565b6000610f31601c8361124a565b91507f416c6c6f77616e636520616d6f756e7420697320746f6f206c6f7721000000006000830152602082019050919050565b6000610f7160198361124a565b91507f4f6e6c79206f776e65722063616e20736574206c6f636b7321000000000000006000830152602082019050919050565b6000610fb1601c8361124a565b91507f4c6f636b20706572696f64206973206e6f74206f7665722079657421000000006000830152602082019050919050565b6000610ff160148361124a565b91507f4c6f636b20616c726561647920657869737473210000000000000000000000006000830152602082019050919050565b600061103160238361124a565b91507f596f752063616e6e6f74207472616e7366657220746f2073616d652077616c6c60008301527f65742100000000000000000000000000000000000000000000000000000000006020830152604082019050919050565b6000611097601e8361124a565b91507f43616e6e6f7420417070726f76652053616d65204164647265737365732100006000830152602082019050919050565b60006110d760158361124a565b91507f496e73756666696369656e742042616c616e63652100000000000000000000006000830152602082019050919050565b61111381611323565b82525050565b600060208201905061112e6000830184610f06565b92915050565b60006020820190506111496000830184610f15565b92915050565b6000602082019050818103600083015261116881610f24565b9050919050565b6000602082019050818103600083015261118881610f64565b9050919050565b600060208201905081810360008301526111a881610fa4565b9050919050565b600060208201905081810360008301526111c881610fe4565b9050919050565b600060208201905081810360008301526111e881611024565b9050919050565b600060208201905081810360008301526112088161108a565b9050919050565b60006020820190508181036000830152611228816110ca565b9050919050565b6000602082019050611244600083018461110a565b92915050565b600082825260208201905092915050565b600061126682611323565b915061127183611323565b9250827fffffffffffffffffffffffffffffffffffffffffffffffffffffffffffffffff038211156112a6576112a561132d565b5b828201905092915050565b60006112bc82611323565b91506112c783611323565b9250828210156112da576112d961132d565b5b828203905092915050565b60006112f082611303565b9050919050565b60008115159050919050565b600073ffffffffffffffffffffffffffffffffffffffff82169050919050565b6000819050919050565b7f4e487b7100000000000000000000000000000000000000000000000000000000600052601160045260246000fd5b611365816112e5565b811461137057600080fd5b50565b61137c81611323565b811461138757600080fd5b5056fea2646970667358221220bc0fd4f557a755f4ef9bddd73ab0fa948d9b0330cda0803c8aec5214ada875df64736f6c63430008000033",
  "linkReferences": {},
  "deployedLinkReferences": {}
}