{
  "_format": "hh-sol-artifact-1",
  "contractName": "MyToken",
  "sourceName": "contracts/MyToken.sol",
  "abi": [
    {
      "inputs": [
        {
          "internalType": "string",
          "name": "_name",
          "type": "string"
        },
        {
          "internalType": "string",
          "name": "_symbol",
          "type": "string"
        },
        {
          "internalType": "uint8",
          "name": "_decimals",
          "type": "uint8"
        },
        {
          "internalType": "uint256",
          "name": "_totalSupply",
          "type": "uint256"
        }
      ],
      "stateMutability": "nonpayable",
      "type": "constructor"
    },
    {
      "anonymous": false,
      "inputs": [
        {
          "indexed": true,
          "internalType": "address",
          "name": "_owner",
          "type": "address"
        },
        {
          "indexed": true,
          "internalType": "address",
          "name": "_spender",
          "type": "address"
        },
        {
          "indexed": false,
          "internalType": "uint256",
          "name": "_value",
          "type": "uint256"
        }
      ],
      "name": "Approval",
      "type": "event"
    },
    {
      "anonymous": false,
      "inputs": [
        {
          "indexed": true,
          "internalType": "address",
          "name": "_from",
          "type": "address"
        },
        {
          "indexed": true,
          "internalType": "address",
          "name": "_to",
          "type": "address"
        },
        {
          "indexed": false,
          "internalType": "uint256",
          "name": "_value",
          "type": "uint256"
        }
      ],
      "name": "Transfer",
      "type": "event"
    },
    {
      "inputs": [
        {
          "internalType": "address",
          "name": "_owner",
          "type": "address"
        },
        {
          "internalType": "address",
          "name": "_spender",
          "type": "address"
        }
      ],
      "name": "allowance",
      "outputs": [
        {
          "internalType": "uint256",
          "name": "remaining",
          "type": "uint256"
        }
      ],
      "stateMutability": "view",
      "type": "function"
    },
    {
      "inputs": [
        {
          "internalType": "address",
          "name": "_spender",
          "type": "address"
        },
        {
          "internalType": "uint256",
          "name": "_value",
          "type": "uint256"
        }
      ],
      "name": "approve",
      "outputs": [
        {
          "internalType": "bool",
          "name": "success",
          "type": "bool"
        }
      ],
      "stateMutability": "nonpayable",
      "type": "function"
    },
    {
      "inputs": [
        {
          "internalType": "address",
          "name": "_owner",
          "type": "address"
        }
      ],
      "name": "balanceOf",
      "outputs": [
        {
          "internalType": "uint256",
          "name": "",
          "type": "uint256"
        }
      ],
      "stateMutability": "view",
      "type": "function"
    },
    {
      "inputs": [],
      "name": "claim",
      "outputs": [
        {
          "internalType": "bool",
          "name": "success",
          "type": "bool"
        }
      ],
      "stateMutability": "nonpayable",
      "type": "function"
    },
    {
      "inputs": [
        {
          "internalType": "address",
          "name": "_receiver",
          "type": "address"
        }
      ],
      "name": "claimable",
      "outputs": [
        {
          "internalType": "uint256",
          "name": "",
          "type": "uint256"
        }
      ],
      "stateMutability": "view",
      "type": "function"
    },
    {
      "inputs": [],
      "name": "decimals",
      "outputs": [
        {
          "internalType": "uint8",
          "name": "",
          "type": "uint8"
        }
      ],
      "stateMutability": "view",
      "type": "function"
    },
    {
      "inputs": [],
      "name": "decimals_",
      "outputs": [
        {
          "internalType": "uint8",
          "name": "",
          "type": "uint8"
        }
      ],
      "stateMutability": "view",
      "type": "function"
    },
    {
      "inputs": [],
      "name": "lockedSupply",
      "outputs": [
        {
          "internalType": "uint256",
          "name": "",
          "type": "uint256"
        }
      ],
      "stateMutability": "view",
      "type": "function"
    },
    {
      "inputs": [
        {
          "internalType": "address",
          "name": "_receiver",
          "type": "address"
        }
      ],
      "name": "lockedUntil",
      "outputs": [
        {
          "internalType": "uint256",
          "name": "",
          "type": "uint256"
        }
      ],
      "stateMutability": "view",
      "type": "function"
    },
    {
      "inputs": [],
      "name": "owner",
      "outputs": [
        {
          "internalType": "address payable",
          "name": "",
          "type": "address"
        }
      ],
      "stateMutability": "view",
      "type": "function"
    },
    {
      "inputs": [
        {
          "internalType": "address",
          "name": "_receiver",
          "type": "address"
        },
        {
          "internalType": "uint256",
          "name": "_value",
          "type": "uint256"
        },
        {
          "internalType": "uint256",
          "name": "_lockperiod",
          "type": "uint256"
        }
      ],
      "name": "reserve",
      "outputs": [
        {
          "internalType": "bool",
          "name": "",
          "type": "bool"
        }
      ],
      "stateMutability": "nonpayable",
      "type": "function"
    },
    {
      "inputs": [],
      "name": "totalSupply",
      "outputs": [
        {
          "internalType": "uint256",
          "name": "",
          "type": "uint256"
        }
      ],
      "stateMutability": "view",
      "type": "function"
    },
    {
      "inputs": [
        {
          "internalType": "address",
          "name": "_to",
          "type": "address"
        },
        {
          "internalType": "uint256",
          "name": "_value",
          "type": "uint256"
        }
      ],
      "name": "transfer",
      "outputs": [
        {
          "internalType": "bool",
          "name": "success",
          "type": "bool"
        }
      ],
      "stateMutability": "nonpayable",
      "type": "function"
    },
    {
      "inputs": [
        {
          "internalType": "address",
          "name": "_from",
          "type": "address"
        },
        {
          "internalType": "address",
          "name": "_to",
          "type": "address"
        },
        {
          "internalType": "uint256",
          "name": "_value",
          "type": "uint256"
        }
      ],
      "name": "transferFrom",
      "outputs": [
        {
          "internalType": "bool",
          "name": "success",
          "type": "bool"
        }
      ],
      "stateMutability": "nonpayable",
      "type": "function"
    }
  ],
  "bytecode": "0x60806040523480156200001157600080fd5b5060405162001b3838038062001b3883398181016040528101906200003791906200028c565b336000806101000a81548173ffffffffffffffffffffffffffffffffffffffff021916908373ffffffffffffffffffffffffffffffffffffffff16021790555083600490805190602001906200008f9291906200013c565b508260059080519060200190620000a89291906200013c565b5081600860006101000a81548160ff021916908360ff16021790555080600681905550600654600160008060009054906101000a900473ffffffffffffffffffffffffffffffffffffffff1673ffffffffffffffffffffffffffffffffffffffff1673ffffffffffffffffffffffffffffffffffffffff1681526020019081526020016000208190555050505050620004a6565b8280546200014a90620003de565b90600052602060002090601f0160209004810192826200016e5760008555620001ba565b82601f106200018957805160ff1916838001178555620001ba565b82800160010185558215620001ba579182015b82811115620001b95782518255916020019190600101906200019c565b5b509050620001c99190620001cd565b5090565b5b80821115620001e8576000816000905550600101620001ce565b5090565b600062000203620001fd846200035e565b6200032a565b9050828152602081018484840111156200021c57600080fd5b62000229848285620003a8565b509392505050565b600082601f8301126200024357600080fd5b815162000255848260208601620001ec565b91505092915050565b6000815190506200026f8162000472565b92915050565b60008151905062000286816200048c565b92915050565b60008060008060808587031215620002a357600080fd5b600085015167ffffffffffffffff811115620002be57600080fd5b620002cc8782880162000231565b945050602085015167ffffffffffffffff811115620002ea57600080fd5b620002f88782880162000231565b93505060406200030b8782880162000275565b92505060606200031e878288016200025e565b91505092959194509250565b6000604051905081810181811067ffffffffffffffff8211171562000354576200035362000443565b5b8060405250919050565b600067ffffffffffffffff8211156200037c576200037b62000443565b5b601f19601f8301169050602081019050919050565b6000819050919050565b600060ff82169050919050565b60005b83811015620003c8578082015181840152602081019050620003ab565b83811115620003d8576000848401525b50505050565b60006002820490506001821680620003f757607f821691505b602082108114156200040e576200040d62000414565b5b50919050565b7f4e487b7100000000000000000000000000000000000000000000000000000000600052602260045260246000fd5b7f4e487b7100000000000000000000000000000000000000000000000000000000600052604160045260246000fd5b6200047d8162000391565b81146200048957600080fd5b50565b62000497816200039b565b8114620004a357600080fd5b50565b61168280620004b66000396000f3fe608060405234801561001057600080fd5b50600436106100ea5760003560e01c80638da5cb5b1161008c578063a9059cbb11610066578063a9059cbb14610287578063ca5c7b91146102b7578063dd62ed3e146102d5578063f785ef7214610305576100ea565b80638da5cb5b146102095780639bc289f1146102275780639e29dd3614610257576100ea565b8063313ce567116100c8578063313ce5671461016d578063402914f51461018b5780634e71d92d146101bb57806370a08231146101d9576100ea565b8063095ea7b3146100ef57806318160ddd1461011f57806323b872dd1461013d575b600080fd5b610109600480360381019061010491906110f4565b610323565b60405161011691906113bc565b60405180910390f35b610127610484565b60405161013491906114b7565b60405180910390f35b610157600480360381019061015291906110a5565b61048e565b60405161016491906113bc565b60405180910390f35b61017561066c565b60405161018291906114d2565b60405180910390f35b6101a560048036038101906101a09190611040565b610683565b6040516101b291906114b7565b60405180910390f35b6101c36106cf565b6040516101d091906113bc565b60405180910390f35b6101f360048036038101906101ee9190611040565b610834565b60405161020091906114b7565b60405180910390f35b61021161087d565b60405161021e91906113a1565b60405180910390f35b610241600480360381019061023c9190611040565b6108a1565b60405161024e91906114b7565b60405180910390f35b610271600480360381019061026c9190611130565b6108ed565b60405161027e91906113bc565b60405180910390f35b6102a1600480360381019061029c91906110f4565b610a9c565b6040516102ae91906113bc565b60405180910390f35b6102bf610c09565b6040516102cc91906114b7565b60405180910390f35b6102ef60048036038101906102ea9190611069565b610c13565b6040516102fc91906114b7565b60405180910390f35b61030d610c9a565b60405161031a91906114d2565b60405180910390f35b60008273ffffffffffffffffffffffffffffffffffffffff163373ffffffffffffffffffffffffffffffffffffffff161415610394576040517f08c379a000000000000000000000000000000000000000000000000000000000815260040161038b90611477565b60405180910390fd5b81600260003373ffffffffffffffffffffffffffffffffffffffff1673ffffffffffffffffffffffffffffffffffffffff16815260200190815260200160002060008573ffffffffffffffffffffffffffffffffffffffff1673ffffffffffffffffffffffffffffffffffffffff168152602001908152602001600020819055508273ffffffffffffffffffffffffffffffffffffffff163373ffffffffffffffffffffffffffffffffffffffff167f8c5be1e5ebec7d5bd14f71427d1e84f3dd0314c0f7b2291e5b200ac8c7c3b9258460405161047291906114b7565b60405180910390a36001905092915050565b6000600654905090565b60008161049b8585610c13565b10156104dc576040517f08c379a00000000000000000000000000000000000000000000000000000000081526004016104d3906113d7565b60405180910390fd5b81600160008673ffffffffffffffffffffffffffffffffffffffff1673ffffffffffffffffffffffffffffffffffffffff16815260200190815260200160002054101561055e576040517f08c379a000000000000000000000000000000000000000000000000000000000815260040161055590611497565b60405180910390fd5b610569848484610cad565b81600260008673ffffffffffffffffffffffffffffffffffffffff1673ffffffffffffffffffffffffffffffffffffffff16815260200190815260200160002060008573ffffffffffffffffffffffffffffffffffffffff1673ffffffffffffffffffffffffffffffffffffffff16815260200190815260200160002060008282546105f59190611554565b925050819055508273ffffffffffffffffffffffffffffffffffffffff168473ffffffffffffffffffffffffffffffffffffffff167fddf252ad1be2c89b69c2b068fc378daa952ba7f163c4a11628f55a4df523b3ef8460405161065991906114b7565b60405180910390a3600190509392505050565b6000600860009054906101000a900460ff16905090565b6000600360008373ffffffffffffffffffffffffffffffffffffffff1673ffffffffffffffffffffffffffffffffffffffff168152602001908152602001600020600001549050919050565b600042600360003373ffffffffffffffffffffffffffffffffffffffff1673ffffffffffffffffffffffffffffffffffffffff168152602001908152602001600020600101541115610756576040517f08c379a000000000000000000000000000000000000000000000000000000000815260040161074d906113f7565b60405180910390fd5b60008054906101000a900473ffffffffffffffffffffffffffffffffffffffff1673ffffffffffffffffffffffffffffffffffffffff163373ffffffffffffffffffffffffffffffffffffffff1614156107b7576107b2610eba565b61082d565b61082460008054906101000a900473ffffffffffffffffffffffffffffffffffffffff1633600360003373ffffffffffffffffffffffffffffffffffffffff1673ffffffffffffffffffffffffffffffffffffffff16815260200190815260200160002060000154610cad565b61082c610eba565b5b6001905090565b6000600160008373ffffffffffffffffffffffffffffffffffffffff1673ffffffffffffffffffffffffffffffffffffffff168152602001908152602001600020549050919050565b60008054906101000a900473ffffffffffffffffffffffffffffffffffffffff1681565b6000600360008373ffffffffffffffffffffffffffffffffffffffff1673ffffffffffffffffffffffffffffffffffffffff168152602001908152602001600020600101549050919050565b600082600160003373ffffffffffffffffffffffffffffffffffffffff1673ffffffffffffffffffffffffffffffffffffffff168152602001908152602001600020541015610971576040517f08c379a000000000000000000000000000000000000000000000000000000000815260040161096890611497565b60405180910390fd5b6000600360008673ffffffffffffffffffffffffffffffffffffffff1673ffffffffffffffffffffffffffffffffffffffff16815260200190815260200160002060000154146109f6576040517f08c379a00000000000000000000000000000000000000000000000000000000081526004016109ed90611437565b60405180910390fd5b60008054906101000a900473ffffffffffffffffffffffffffffffffffffffff1673ffffffffffffffffffffffffffffffffffffffff163373ffffffffffffffffffffffffffffffffffffffff161415610a5a57610a55848484610f5f565b610a91565b610a853360008054906101000a900473ffffffffffffffffffffffffffffffffffffffff1685610cad565b610a90848484610f5f565b5b600190509392505050565b600081600160003373ffffffffffffffffffffffffffffffffffffffff1673ffffffffffffffffffffffffffffffffffffffff168152602001908152602001600020541015610b20576040517f08c379a0000000000000000000000000000000000000000000000000000000008152600401610b1790611497565b60405180910390fd5b8273ffffffffffffffffffffffffffffffffffffffff163373ffffffffffffffffffffffffffffffffffffffff161415610b8f576040517f08c379a0000000000000000000000000000000000000000000000000000000008152600401610b8690611457565b60405180910390fd5b610b9a338484610cad565b8273ffffffffffffffffffffffffffffffffffffffff163373ffffffffffffffffffffffffffffffffffffffff167fddf252ad1be2c89b69c2b068fc378daa952ba7f163c4a11628f55a4df523b3ef84604051610bf791906114b7565b60405180910390a36001905092915050565b6000600754905090565b6000600260008473ffffffffffffffffffffffffffffffffffffffff1673ffffffffffffffffffffffffffffffffffffffff16815260200190815260200160002060008373ffffffffffffffffffffffffffffffffffffffff1673ffffffffffffffffffffffffffffffffffffffff16815260200190815260200160002054905092915050565b600860009054906101000a900460ff1681565b60008054906101000a900473ffffffffffffffffffffffffffffffffffffffff1673ffffffffffffffffffffffffffffffffffffffff163373ffffffffffffffffffffffffffffffffffffffff16148015610d53575060008054906101000a900473ffffffffffffffffffffffffffffffffffffffff1673ffffffffffffffffffffffffffffffffffffffff168373ffffffffffffffffffffffffffffffffffffffff16145b15610e0957600754600160008060009054906101000a900473ffffffffffffffffffffffffffffffffffffffff1673ffffffffffffffffffffffffffffffffffffffff1673ffffffffffffffffffffffffffffffffffffffff16815260200190815260200160002054610dc69190611554565b811115610e08576040517f08c379a0000000000000000000000000000000000000000000000000000000008152600401610dff90611417565b60405180910390fd5b5b80600160008573ffffffffffffffffffffffffffffffffffffffff1673ffffffffffffffffffffffffffffffffffffffff1681526020019081526020016000206000828254610e589190611554565b9250508190555080600160008473ffffffffffffffffffffffffffffffffffffffff1673ffffffffffffffffffffffffffffffffffffffff1681526020019081526020016000206000828254610eae91906114fe565b92505081905550505050565b6000600360003373ffffffffffffffffffffffffffffffffffffffff1673ffffffffffffffffffffffffffffffffffffffff16815260200190815260200160002060000181905550600360003373ffffffffffffffffffffffffffffffffffffffff1673ffffffffffffffffffffffffffffffffffffffff1681526020019081526020016000206000015460076000828254610f569190611554565b92505081905550565b81600360008573ffffffffffffffffffffffffffffffffffffffff1673ffffffffffffffffffffffffffffffffffffffff168152602001908152602001600020600001819055508042610fb291906114fe565b600360008573ffffffffffffffffffffffffffffffffffffffff1673ffffffffffffffffffffffffffffffffffffffff16815260200190815260200160002060010181905550816007600082825461100a91906114fe565b92505081905550505050565b6000813590506110258161161e565b92915050565b60008135905061103a81611635565b92915050565b60006020828403121561105257600080fd5b600061106084828501611016565b91505092915050565b6000806040838503121561107c57600080fd5b600061108a85828601611016565b925050602061109b85828601611016565b9150509250929050565b6000806000606084860312156110ba57600080fd5b60006110c886828701611016565b93505060206110d986828701611016565b92505060406110ea8682870161102b565b9150509250925092565b6000806040838503121561110757600080fd5b600061111585828601611016565b92505060206111268582860161102b565b9150509250929050565b60008060006060848603121561114557600080fd5b600061115386828701611016565b93505060206111648682870161102b565b92505060406111758682870161102b565b9150509250925092565b6111888161159a565b82525050565b611197816115ac565b82525050565b60006111aa601c836114ed565b91507f416c6c6f77616e636520616d6f756e7420697320746f6f206c6f7721000000006000830152602082019050919050565b60006111ea601c836114ed565b91507f4c6f636b20706572696f64206973206e6f74206f7665722079657421000000006000830152602082019050919050565b600061122a6014836114ed565b91507f42616c616e636520756e617661696c61626c65210000000000000000000000006000830152602082019050919050565b600061126a6010836114ed565b91507f416c7265616479207265736572766564000000000000000000000000000000006000830152602082019050919050565b60006112aa6023836114ed565b91507f596f752063616e6e6f74207472616e7366657220746f2073616d652077616c6c60008301527f65742100000000000000000000000000000000000000000000000000000000006020830152604082019050919050565b6000611310601e836114ed565b91507f43616e6e6f7420417070726f76652053616d65204164647265737365732100006000830152602082019050919050565b60006113506015836114ed565b91507f496e73756666696369656e742042616c616e63652100000000000000000000006000830152602082019050919050565b61138c816115d8565b82525050565b61139b816115e2565b82525050565b60006020820190506113b6600083018461117f565b92915050565b60006020820190506113d1600083018461118e565b92915050565b600060208201905081810360008301526113f08161119d565b9050919050565b60006020820190508181036000830152611410816111dd565b9050919050565b600060208201905081810360008301526114308161121d565b9050919050565b600060208201905081810360008301526114508161125d565b9050919050565b600060208201905081810360008301526114708161129d565b9050919050565b6000602082019050818103600083015261149081611303565b9050919050565b600060208201905081810360008301526114b081611343565b9050919050565b60006020820190506114cc6000830184611383565b92915050565b60006020820190506114e76000830184611392565b92915050565b600082825260208201905092915050565b6000611509826115d8565b9150611514836115d8565b9250827fffffffffffffffffffffffffffffffffffffffffffffffffffffffffffffffff03821115611549576115486115ef565b5b828201905092915050565b600061155f826115d8565b915061156a836115d8565b92508282101561157d5761157c6115ef565b5b828203905092915050565b6000611593826115b8565b9050919050565b60006115a5826115b8565b9050919050565b60008115159050919050565b600073ffffffffffffffffffffffffffffffffffffffff82169050919050565b6000819050919050565b600060ff82169050919050565b7f4e487b7100000000000000000000000000000000000000000000000000000000600052601160045260246000fd5b61162781611588565b811461163257600080fd5b50565b61163e816115d8565b811461164957600080fd5b5056fea2646970667358221220fe2631f297122abbc7bb80f8ebe8f11217f198614eb6e143b2ffd91e6a92845664736f6c63430008000033",
  "linkReferences": {},
  "deployedLinkReferences": {}
}