{
  "_format": "hh-sol-artifact-1",
  "contractName": "MyToken",
  "sourceName": "contracts/MyToken.sol",
  "abi": [
    {
      "inputs": [
        {
          "internalType": "string",
          "name": "_name",
          "type": "string"
        },
        {
          "internalType": "string",
          "name": "_symbol",
          "type": "string"
        },
        {
          "internalType": "uint8",
          "name": "_decimals",
          "type": "uint8"
        },
        {
          "internalType": "uint256",
          "name": "_totalSupply",
          "type": "uint256"
        }
      ],
      "stateMutability": "nonpayable",
      "type": "constructor"
    },
    {
      "anonymous": false,
      "inputs": [
        {
          "indexed": true,
          "internalType": "address",
          "name": "_owner",
          "type": "address"
        },
        {
          "indexed": true,
          "internalType": "address",
          "name": "_spender",
          "type": "address"
        },
        {
          "indexed": false,
          "internalType": "uint256",
          "name": "_value",
          "type": "uint256"
        }
      ],
      "name": "Approval",
      "type": "event"
    },
    {
      "anonymous": false,
      "inputs": [
        {
          "indexed": true,
          "internalType": "address",
          "name": "_from",
          "type": "address"
        },
        {
          "indexed": true,
          "internalType": "address",
          "name": "_to",
          "type": "address"
        },
        {
          "indexed": false,
          "internalType": "uint256",
          "name": "_value",
          "type": "uint256"
        }
      ],
      "name": "Transfer",
      "type": "event"
    },
    {
      "inputs": [
        {
          "internalType": "address",
          "name": "_owner",
          "type": "address"
        },
        {
          "internalType": "address",
          "name": "_spender",
          "type": "address"
        }
      ],
      "name": "allowance",
      "outputs": [
        {
          "internalType": "uint256",
          "name": "remaining",
          "type": "uint256"
        }
      ],
      "stateMutability": "view",
      "type": "function"
    },
    {
      "inputs": [
        {
          "internalType": "address",
          "name": "_spender",
          "type": "address"
        },
        {
          "internalType": "uint256",
          "name": "_value",
          "type": "uint256"
        }
      ],
      "name": "approve",
      "outputs": [
        {
          "internalType": "bool",
          "name": "success",
          "type": "bool"
        }
      ],
      "stateMutability": "nonpayable",
      "type": "function"
    },
    {
      "inputs": [
        {
          "internalType": "address",
          "name": "_owner",
          "type": "address"
        }
      ],
      "name": "balanceOf",
      "outputs": [
        {
          "internalType": "uint256",
          "name": "",
          "type": "uint256"
        }
      ],
      "stateMutability": "view",
      "type": "function"
    },
    {
      "inputs": [],
      "name": "claim",
      "outputs": [
        {
          "internalType": "bool",
          "name": "success",
          "type": "bool"
        }
      ],
      "stateMutability": "nonpayable",
      "type": "function"
    },
    {
      "inputs": [
        {
          "internalType": "address",
          "name": "_receiver",
          "type": "address"
        }
      ],
      "name": "claimable",
      "outputs": [
        {
          "internalType": "uint256",
          "name": "",
          "type": "uint256"
        }
      ],
      "stateMutability": "view",
      "type": "function"
    },
    {
      "inputs": [],
      "name": "decimals",
      "outputs": [
        {
          "internalType": "uint8",
          "name": "",
          "type": "uint8"
        }
      ],
      "stateMutability": "view",
      "type": "function"
    },
    {
      "inputs": [],
      "name": "lockedSupply",
      "outputs": [
        {
          "internalType": "uint256",
          "name": "",
          "type": "uint256"
        }
      ],
      "stateMutability": "view",
      "type": "function"
    },
    {
      "inputs": [
        {
          "internalType": "address",
          "name": "_receiver",
          "type": "address"
        }
      ],
      "name": "lockedUntil",
      "outputs": [
        {
          "internalType": "uint256",
          "name": "",
          "type": "uint256"
        }
      ],
      "stateMutability": "view",
      "type": "function"
    },
    {
      "inputs": [],
      "name": "owner",
      "outputs": [
        {
          "internalType": "address payable",
          "name": "",
          "type": "address"
        }
      ],
      "stateMutability": "view",
      "type": "function"
    },
    {
      "inputs": [
        {
          "internalType": "address",
          "name": "_receiver",
          "type": "address"
        },
        {
          "internalType": "uint256",
          "name": "_value",
          "type": "uint256"
        },
        {
          "internalType": "uint256",
          "name": "_lockperiod",
          "type": "uint256"
        }
      ],
      "name": "reserve",
      "outputs": [
        {
          "internalType": "bool",
          "name": "",
          "type": "bool"
        }
      ],
      "stateMutability": "nonpayable",
      "type": "function"
    },
    {
      "inputs": [],
      "name": "totalSupply",
      "outputs": [
        {
          "internalType": "uint256",
          "name": "",
          "type": "uint256"
        }
      ],
      "stateMutability": "view",
      "type": "function"
    },
    {
      "inputs": [
        {
          "internalType": "address",
          "name": "_to",
          "type": "address"
        },
        {
          "internalType": "uint256",
          "name": "_value",
          "type": "uint256"
        }
      ],
      "name": "transfer",
      "outputs": [
        {
          "internalType": "bool",
          "name": "success",
          "type": "bool"
        }
      ],
      "stateMutability": "nonpayable",
      "type": "function"
    },
    {
      "inputs": [
        {
          "internalType": "address",
          "name": "_from",
          "type": "address"
        },
        {
          "internalType": "address",
          "name": "_to",
          "type": "address"
        },
        {
          "internalType": "uint256",
          "name": "_value",
          "type": "uint256"
        }
      ],
      "name": "transferFrom",
      "outputs": [
        {
          "internalType": "bool",
          "name": "success",
          "type": "bool"
        }
      ],
      "stateMutability": "nonpayable",
      "type": "function"
    }
  ],
  "bytecode": "0x60806040523480156200001157600080fd5b5060405162001aec38038062001aec83398181016040528101906200003791906200028c565b336000806101000a81548173ffffffffffffffffffffffffffffffffffffffff021916908373ffffffffffffffffffffffffffffffffffffffff16021790555083600490805190602001906200008f9291906200013c565b508260059080519060200190620000a89291906200013c565b5081600860006101000a81548160ff021916908360ff16021790555080600681905550600654600160008060009054906101000a900473ffffffffffffffffffffffffffffffffffffffff1673ffffffffffffffffffffffffffffffffffffffff1673ffffffffffffffffffffffffffffffffffffffff1681526020019081526020016000208190555050505050620004a6565b8280546200014a90620003de565b90600052602060002090601f0160209004810192826200016e5760008555620001ba565b82601f106200018957805160ff1916838001178555620001ba565b82800160010185558215620001ba579182015b82811115620001b95782518255916020019190600101906200019c565b5b509050620001c99190620001cd565b5090565b5b80821115620001e8576000816000905550600101620001ce565b5090565b600062000203620001fd846200035e565b6200032a565b9050828152602081018484840111156200021c57600080fd5b62000229848285620003a8565b509392505050565b600082601f8301126200024357600080fd5b815162000255848260208601620001ec565b91505092915050565b6000815190506200026f8162000472565b92915050565b60008151905062000286816200048c565b92915050565b60008060008060808587031215620002a357600080fd5b600085015167ffffffffffffffff811115620002be57600080fd5b620002cc8782880162000231565b945050602085015167ffffffffffffffff811115620002ea57600080fd5b620002f88782880162000231565b93505060406200030b8782880162000275565b92505060606200031e878288016200025e565b91505092959194509250565b6000604051905081810181811067ffffffffffffffff8211171562000354576200035362000443565b5b8060405250919050565b600067ffffffffffffffff8211156200037c576200037b62000443565b5b601f19601f8301169050602081019050919050565b6000819050919050565b600060ff82169050919050565b60005b83811015620003c8578082015181840152602081019050620003ab565b83811115620003d8576000848401525b50505050565b60006002820490506001821680620003f757607f821691505b602082108114156200040e576200040d62000414565b5b50919050565b7f4e487b7100000000000000000000000000000000000000000000000000000000600052602260045260246000fd5b7f4e487b7100000000000000000000000000000000000000000000000000000000600052604160045260246000fd5b6200047d8162000391565b81146200048957600080fd5b50565b62000497816200039b565b8114620004a357600080fd5b50565b61163680620004b66000396000f3fe608060405234801561001057600080fd5b50600436106100cf5760003560e01c806370a082311161008c5780639e29dd36116100665780639e29dd361461023c578063a9059cbb1461026c578063ca5c7b911461029c578063dd62ed3e146102ba576100cf565b806370a08231146101be5780638da5cb5b146101ee5780639bc289f11461020c576100cf565b8063095ea7b3146100d457806318160ddd1461010457806323b872dd14610122578063313ce56714610152578063402914f5146101705780634e71d92d146101a0575b600080fd5b6100ee60048036038101906100e991906110a8565b6102ea565b6040516100fb9190611370565b60405180910390f35b61010c61044b565b604051610119919061146b565b60405180910390f35b61013c60048036038101906101379190611059565b610455565b6040516101499190611370565b60405180910390f35b61015a610633565b6040516101679190611486565b60405180910390f35b61018a60048036038101906101859190610ff4565b61064a565b604051610197919061146b565b60405180910390f35b6101a8610696565b6040516101b59190611370565b60405180910390f35b6101d860048036038101906101d39190610ff4565b6107fb565b6040516101e5919061146b565b60405180910390f35b6101f6610844565b6040516102039190611355565b60405180910390f35b61022660048036038101906102219190610ff4565b610868565b604051610233919061146b565b60405180910390f35b610256600480360381019061025191906110e4565b6108b4565b6040516102639190611370565b60405180910390f35b610286600480360381019061028191906110a8565b610a63565b6040516102939190611370565b60405180910390f35b6102a4610bd0565b6040516102b1919061146b565b60405180910390f35b6102d460048036038101906102cf919061101d565b610bda565b6040516102e1919061146b565b60405180910390f35b60008273ffffffffffffffffffffffffffffffffffffffff163373ffffffffffffffffffffffffffffffffffffffff16141561035b576040517f08c379a00000000000000000000000000000000000000000000000000000000081526004016103529061142b565b60405180910390fd5b81600260003373ffffffffffffffffffffffffffffffffffffffff1673ffffffffffffffffffffffffffffffffffffffff16815260200190815260200160002060008573ffffffffffffffffffffffffffffffffffffffff1673ffffffffffffffffffffffffffffffffffffffff168152602001908152602001600020819055508273ffffffffffffffffffffffffffffffffffffffff163373ffffffffffffffffffffffffffffffffffffffff167f8c5be1e5ebec7d5bd14f71427d1e84f3dd0314c0f7b2291e5b200ac8c7c3b92584604051610439919061146b565b60405180910390a36001905092915050565b6000600654905090565b6000816104628585610bda565b10156104a3576040517f08c379a000000000000000000000000000000000000000000000000000000000815260040161049a9061138b565b60405180910390fd5b81600160008673ffffffffffffffffffffffffffffffffffffffff1673ffffffffffffffffffffffffffffffffffffffff168152602001908152602001600020541015610525576040517f08c379a000000000000000000000000000000000000000000000000000000000815260040161051c9061144b565b60405180910390fd5b610530848484610c61565b81600260008673ffffffffffffffffffffffffffffffffffffffff1673ffffffffffffffffffffffffffffffffffffffff16815260200190815260200160002060008573ffffffffffffffffffffffffffffffffffffffff1673ffffffffffffffffffffffffffffffffffffffff16815260200190815260200160002060008282546105bc9190611508565b925050819055508273ffffffffffffffffffffffffffffffffffffffff168473ffffffffffffffffffffffffffffffffffffffff167fddf252ad1be2c89b69c2b068fc378daa952ba7f163c4a11628f55a4df523b3ef84604051610620919061146b565b60405180910390a3600190509392505050565b6000600860009054906101000a900460ff16905090565b6000600360008373ffffffffffffffffffffffffffffffffffffffff1673ffffffffffffffffffffffffffffffffffffffff168152602001908152602001600020600001549050919050565b600042600360003373ffffffffffffffffffffffffffffffffffffffff1673ffffffffffffffffffffffffffffffffffffffff16815260200190815260200160002060010154111561071d576040517f08c379a0000000000000000000000000000000000000000000000000000000008152600401610714906113ab565b60405180910390fd5b60008054906101000a900473ffffffffffffffffffffffffffffffffffffffff1673ffffffffffffffffffffffffffffffffffffffff163373ffffffffffffffffffffffffffffffffffffffff16141561077e57610779610e6e565b6107f4565b6107eb60008054906101000a900473ffffffffffffffffffffffffffffffffffffffff1633600360003373ffffffffffffffffffffffffffffffffffffffff1673ffffffffffffffffffffffffffffffffffffffff16815260200190815260200160002060000154610c61565b6107f3610e6e565b5b6001905090565b6000600160008373ffffffffffffffffffffffffffffffffffffffff1673ffffffffffffffffffffffffffffffffffffffff168152602001908152602001600020549050919050565b60008054906101000a900473ffffffffffffffffffffffffffffffffffffffff1681565b6000600360008373ffffffffffffffffffffffffffffffffffffffff1673ffffffffffffffffffffffffffffffffffffffff168152602001908152602001600020600101549050919050565b600082600160003373ffffffffffffffffffffffffffffffffffffffff1673ffffffffffffffffffffffffffffffffffffffff168152602001908152602001600020541015610938576040517f08c379a000000000000000000000000000000000000000000000000000000000815260040161092f9061144b565b60405180910390fd5b6000600360008673ffffffffffffffffffffffffffffffffffffffff1673ffffffffffffffffffffffffffffffffffffffff16815260200190815260200160002060000154146109bd576040517f08c379a00000000000000000000000000000000000000000000000000000000081526004016109b4906113eb565b60405180910390fd5b60008054906101000a900473ffffffffffffffffffffffffffffffffffffffff1673ffffffffffffffffffffffffffffffffffffffff163373ffffffffffffffffffffffffffffffffffffffff161415610a2157610a1c848484610f13565b610a58565b610a4c3360008054906101000a900473ffffffffffffffffffffffffffffffffffffffff1685610c61565b610a57848484610f13565b5b600190509392505050565b600081600160003373ffffffffffffffffffffffffffffffffffffffff1673ffffffffffffffffffffffffffffffffffffffff168152602001908152602001600020541015610ae7576040517f08c379a0000000000000000000000000000000000000000000000000000000008152600401610ade9061144b565b60405180910390fd5b8273ffffffffffffffffffffffffffffffffffffffff163373ffffffffffffffffffffffffffffffffffffffff161415610b56576040517f08c379a0000000000000000000000000000000000000000000000000000000008152600401610b4d9061140b565b60405180910390fd5b610b61338484610c61565b8273ffffffffffffffffffffffffffffffffffffffff163373ffffffffffffffffffffffffffffffffffffffff167fddf252ad1be2c89b69c2b068fc378daa952ba7f163c4a11628f55a4df523b3ef84604051610bbe919061146b565b60405180910390a36001905092915050565b6000600754905090565b6000600260008473ffffffffffffffffffffffffffffffffffffffff1673ffffffffffffffffffffffffffffffffffffffff16815260200190815260200160002060008373ffffffffffffffffffffffffffffffffffffffff1673ffffffffffffffffffffffffffffffffffffffff16815260200190815260200160002054905092915050565b60008054906101000a900473ffffffffffffffffffffffffffffffffffffffff1673ffffffffffffffffffffffffffffffffffffffff163373ffffffffffffffffffffffffffffffffffffffff16148015610d07575060008054906101000a900473ffffffffffffffffffffffffffffffffffffffff1673ffffffffffffffffffffffffffffffffffffffff168373ffffffffffffffffffffffffffffffffffffffff16145b15610dbd57600754600160008060009054906101000a900473ffffffffffffffffffffffffffffffffffffffff1673ffffffffffffffffffffffffffffffffffffffff1673ffffffffffffffffffffffffffffffffffffffff16815260200190815260200160002054610d7a9190611508565b811115610dbc576040517f08c379a0000000000000000000000000000000000000000000000000000000008152600401610db3906113cb565b60405180910390fd5b5b80600160008573ffffffffffffffffffffffffffffffffffffffff1673ffffffffffffffffffffffffffffffffffffffff1681526020019081526020016000206000828254610e0c9190611508565b9250508190555080600160008473ffffffffffffffffffffffffffffffffffffffff1673ffffffffffffffffffffffffffffffffffffffff1681526020019081526020016000206000828254610e6291906114b2565b92505081905550505050565b6000600360003373ffffffffffffffffffffffffffffffffffffffff1673ffffffffffffffffffffffffffffffffffffffff16815260200190815260200160002060000181905550600360003373ffffffffffffffffffffffffffffffffffffffff1673ffffffffffffffffffffffffffffffffffffffff1681526020019081526020016000206000015460076000828254610f0a9190611508565b92505081905550565b81600360008573ffffffffffffffffffffffffffffffffffffffff1673ffffffffffffffffffffffffffffffffffffffff168152602001908152602001600020600001819055508042610f6691906114b2565b600360008573ffffffffffffffffffffffffffffffffffffffff1673ffffffffffffffffffffffffffffffffffffffff168152602001908152602001600020600101819055508160076000828254610fbe91906114b2565b92505081905550505050565b600081359050610fd9816115d2565b92915050565b600081359050610fee816115e9565b92915050565b60006020828403121561100657600080fd5b600061101484828501610fca565b91505092915050565b6000806040838503121561103057600080fd5b600061103e85828601610fca565b925050602061104f85828601610fca565b9150509250929050565b60008060006060848603121561106e57600080fd5b600061107c86828701610fca565b935050602061108d86828701610fca565b925050604061109e86828701610fdf565b9150509250925092565b600080604083850312156110bb57600080fd5b60006110c985828601610fca565b92505060206110da85828601610fdf565b9150509250929050565b6000806000606084860312156110f957600080fd5b600061110786828701610fca565b935050602061111886828701610fdf565b925050604061112986828701610fdf565b9150509250925092565b61113c8161154e565b82525050565b61114b81611560565b82525050565b600061115e601c836114a1565b91507f416c6c6f77616e636520616d6f756e7420697320746f6f206c6f7721000000006000830152602082019050919050565b600061119e601c836114a1565b91507f4c6f636b20706572696f64206973206e6f74206f7665722079657421000000006000830152602082019050919050565b60006111de6014836114a1565b91507f42616c616e636520756e617661696c61626c65210000000000000000000000006000830152602082019050919050565b600061121e6010836114a1565b91507f416c7265616479207265736572766564000000000000000000000000000000006000830152602082019050919050565b600061125e6023836114a1565b91507f596f752063616e6e6f74207472616e7366657220746f2073616d652077616c6c60008301527f65742100000000000000000000000000000000000000000000000000000000006020830152604082019050919050565b60006112c4601e836114a1565b91507f43616e6e6f7420417070726f76652053616d65204164647265737365732100006000830152602082019050919050565b60006113046015836114a1565b91507f496e73756666696369656e742042616c616e63652100000000000000000000006000830152602082019050919050565b6113408161158c565b82525050565b61134f81611596565b82525050565b600060208201905061136a6000830184611133565b92915050565b60006020820190506113856000830184611142565b92915050565b600060208201905081810360008301526113a481611151565b9050919050565b600060208201905081810360008301526113c481611191565b9050919050565b600060208201905081810360008301526113e4816111d1565b9050919050565b6000602082019050818103600083015261140481611211565b9050919050565b6000602082019050818103600083015261142481611251565b9050919050565b60006020820190508181036000830152611444816112b7565b9050919050565b60006020820190508181036000830152611464816112f7565b9050919050565b60006020820190506114806000830184611337565b92915050565b600060208201905061149b6000830184611346565b92915050565b600082825260208201905092915050565b60006114bd8261158c565b91506114c88361158c565b9250827fffffffffffffffffffffffffffffffffffffffffffffffffffffffffffffffff038211156114fd576114fc6115a3565b5b828201905092915050565b60006115138261158c565b915061151e8361158c565b925082821015611531576115306115a3565b5b828203905092915050565b60006115478261156c565b9050919050565b60006115598261156c565b9050919050565b60008115159050919050565b600073ffffffffffffffffffffffffffffffffffffffff82169050919050565b6000819050919050565b600060ff82169050919050565b7f4e487b7100000000000000000000000000000000000000000000000000000000600052601160045260246000fd5b6115db8161153c565b81146115e657600080fd5b50565b6115f28161158c565b81146115fd57600080fd5b5056fea2646970667358221220af904481451e66192f419cf66b88b8fea8e18d54778e912ec533d2c12f6729e064736f6c63430008000033",
  "linkReferences": {},
  "deployedLinkReferences": {}
}