{
  "_format": "hh-sol-artifact-1",
  "contractName": "MyToken",
  "sourceName": "contracts/MyToken.sol",
  "abi": [
    {
      "inputs": [
        {
          "internalType": "uint256",
          "name": "_totalSupply",
          "type": "uint256"
        }
      ],
      "stateMutability": "nonpayable",
      "type": "constructor"
    },
    {
      "anonymous": false,
      "inputs": [
        {
          "indexed": true,
          "internalType": "address",
          "name": "_owner",
          "type": "address"
        },
        {
          "indexed": true,
          "internalType": "address",
          "name": "_spender",
          "type": "address"
        },
        {
          "indexed": false,
          "internalType": "uint256",
          "name": "_value",
          "type": "uint256"
        }
      ],
      "name": "Approval",
      "type": "event"
    },
    {
      "anonymous": false,
      "inputs": [
        {
          "indexed": true,
          "internalType": "address",
          "name": "_from",
          "type": "address"
        },
        {
          "indexed": true,
          "internalType": "address",
          "name": "_to",
          "type": "address"
        },
        {
          "indexed": false,
          "internalType": "uint256",
          "name": "_value",
          "type": "uint256"
        }
      ],
      "name": "Transfer",
      "type": "event"
    },
    {
      "inputs": [
        {
          "internalType": "address",
          "name": "_owner",
          "type": "address"
        },
        {
          "internalType": "address",
          "name": "_spender",
          "type": "address"
        }
      ],
      "name": "allowance",
      "outputs": [
        {
          "internalType": "uint256",
          "name": "remaining",
          "type": "uint256"
        }
      ],
      "stateMutability": "view",
      "type": "function"
    },
    {
      "inputs": [
        {
          "internalType": "address",
          "name": "_spender",
          "type": "address"
        },
        {
          "internalType": "uint256",
          "name": "_value",
          "type": "uint256"
        }
      ],
      "name": "approve",
      "outputs": [
        {
          "internalType": "bool",
          "name": "success",
          "type": "bool"
        }
      ],
      "stateMutability": "nonpayable",
      "type": "function"
    },
    {
      "inputs": [
        {
          "internalType": "address",
          "name": "_owner",
          "type": "address"
        }
      ],
      "name": "balanceOf",
      "outputs": [
        {
          "internalType": "uint256",
          "name": "",
          "type": "uint256"
        }
      ],
      "stateMutability": "view",
      "type": "function"
    },
    {
      "inputs": [],
      "name": "owner",
      "outputs": [
        {
          "internalType": "address",
          "name": "",
          "type": "address"
        }
      ],
      "stateMutability": "view",
      "type": "function"
    },
    {
      "inputs": [],
      "name": "totalSupply",
      "outputs": [
        {
          "internalType": "uint256",
          "name": "",
          "type": "uint256"
        }
      ],
      "stateMutability": "view",
      "type": "function"
    },
    {
      "inputs": [],
      "name": "totalSupply_",
      "outputs": [
        {
          "internalType": "uint256",
          "name": "",
          "type": "uint256"
        }
      ],
      "stateMutability": "view",
      "type": "function"
    },
    {
      "inputs": [
        {
          "internalType": "address",
          "name": "_to",
          "type": "address"
        },
        {
          "internalType": "uint256",
          "name": "_value",
          "type": "uint256"
        }
      ],
      "name": "transfer",
      "outputs": [
        {
          "internalType": "bool",
          "name": "success",
          "type": "bool"
        }
      ],
      "stateMutability": "nonpayable",
      "type": "function"
    },
    {
      "inputs": [
        {
          "internalType": "address",
          "name": "_from",
          "type": "address"
        },
        {
          "internalType": "address",
          "name": "_to",
          "type": "address"
        },
        {
          "internalType": "uint256",
          "name": "_value",
          "type": "uint256"
        }
      ],
      "name": "transferFrom",
      "outputs": [
        {
          "internalType": "bool",
          "name": "success",
          "type": "bool"
        }
      ],
      "stateMutability": "nonpayable",
      "type": "function"
    }
  ],
  "bytecode": "0x608060405234801561001057600080fd5b50604051610e40380380610e40833981810160405281019061003291906100fb565b336000806101000a81548173ffffffffffffffffffffffffffffffffffffffff021916908373ffffffffffffffffffffffffffffffffffffffff16021790555080600381905550600354600160008060009054906101000a900473ffffffffffffffffffffffffffffffffffffffff1673ffffffffffffffffffffffffffffffffffffffff1673ffffffffffffffffffffffffffffffffffffffff1681526020019081526020016000208190555050610145565b6000815190506100f58161012e565b92915050565b60006020828403121561010d57600080fd5b600061011b848285016100e6565b91505092915050565b6000819050919050565b61013781610124565b811461014257600080fd5b50565b610cec806101546000396000f3fe608060405234801561001057600080fd5b50600436106100885760003560e01c806370a082311161005b57806370a08231146101295780638da5cb5b14610159578063a9059cbb14610177578063dd62ed3e146101a757610088565b8063095ea7b31461008d57806318160ddd146100bd57806323b872dd146100db578063324536eb1461010b575b600080fd5b6100a760048036038101906100a29190610916565b6101d7565b6040516100b49190610ac0565b60405180910390f35b6100c5610338565b6040516100d29190610b5b565b60405180910390f35b6100f560048036038101906100f091906108c7565b610342565b6040516101029190610ac0565b60405180910390f35b610113610520565b6040516101209190610b5b565b60405180910390f35b610143600480360381019061013e9190610862565b610526565b6040516101509190610b5b565b60405180910390f35b61016161056f565b60405161016e9190610aa5565b60405180910390f35b610191600480360381019061018c9190610916565b610593565b60405161019e9190610ac0565b60405180910390f35b6101c160048036038101906101bc919061088b565b610700565b6040516101ce9190610b5b565b60405180910390f35b60008273ffffffffffffffffffffffffffffffffffffffff163373ffffffffffffffffffffffffffffffffffffffff161415610248576040517f08c379a000000000000000000000000000000000000000000000000000000000815260040161023f90610b1b565b60405180910390fd5b81600260003373ffffffffffffffffffffffffffffffffffffffff1673ffffffffffffffffffffffffffffffffffffffff16815260200190815260200160002060008573ffffffffffffffffffffffffffffffffffffffff1673ffffffffffffffffffffffffffffffffffffffff168152602001908152602001600020819055508273ffffffffffffffffffffffffffffffffffffffff163373ffffffffffffffffffffffffffffffffffffffff167f8c5be1e5ebec7d5bd14f71427d1e84f3dd0314c0f7b2291e5b200ac8c7c3b925846040516103269190610b5b565b60405180910390a36001905092915050565b6000600354905090565b60008161034f8585610700565b1015610390576040517f08c379a000000000000000000000000000000000000000000000000000000000815260040161038790610adb565b60405180910390fd5b81600160008673ffffffffffffffffffffffffffffffffffffffff1673ffffffffffffffffffffffffffffffffffffffff168152602001908152602001600020541015610412576040517f08c379a000000000000000000000000000000000000000000000000000000000815260040161040990610b3b565b60405180910390fd5b61041d848484610787565b81600260008673ffffffffffffffffffffffffffffffffffffffff1673ffffffffffffffffffffffffffffffffffffffff16815260200190815260200160002060008573ffffffffffffffffffffffffffffffffffffffff1673ffffffffffffffffffffffffffffffffffffffff16815260200190815260200160002060008282546104a99190610bdd565b925050819055508273ffffffffffffffffffffffffffffffffffffffff168473ffffffffffffffffffffffffffffffffffffffff167fddf252ad1be2c89b69c2b068fc378daa952ba7f163c4a11628f55a4df523b3ef8460405161050d9190610b5b565b60405180910390a3600190509392505050565b60035481565b6000600160008373ffffffffffffffffffffffffffffffffffffffff1673ffffffffffffffffffffffffffffffffffffffff168152602001908152602001600020549050919050565b60008054906101000a900473ffffffffffffffffffffffffffffffffffffffff1681565b600081600160003373ffffffffffffffffffffffffffffffffffffffff1673ffffffffffffffffffffffffffffffffffffffff168152602001908152602001600020541015610617576040517f08c379a000000000000000000000000000000000000000000000000000000000815260040161060e90610b3b565b60405180910390fd5b8273ffffffffffffffffffffffffffffffffffffffff163373ffffffffffffffffffffffffffffffffffffffff161415610686576040517f08c379a000000000000000000000000000000000000000000000000000000000815260040161067d90610afb565b60405180910390fd5b610691338484610787565b8273ffffffffffffffffffffffffffffffffffffffff163373ffffffffffffffffffffffffffffffffffffffff167fddf252ad1be2c89b69c2b068fc378daa952ba7f163c4a11628f55a4df523b3ef846040516106ee9190610b5b565b60405180910390a36001905092915050565b6000600260008473ffffffffffffffffffffffffffffffffffffffff1673ffffffffffffffffffffffffffffffffffffffff16815260200190815260200160002060008373ffffffffffffffffffffffffffffffffffffffff1673ffffffffffffffffffffffffffffffffffffffff16815260200190815260200160002054905092915050565b80600160008573ffffffffffffffffffffffffffffffffffffffff1673ffffffffffffffffffffffffffffffffffffffff16815260200190815260200160002060008282546107d69190610bdd565b9250508190555080600160008473ffffffffffffffffffffffffffffffffffffffff1673ffffffffffffffffffffffffffffffffffffffff168152602001908152602001600020600082825461082c9190610b87565b92505081905550505050565b60008135905061084781610c88565b92915050565b60008135905061085c81610c9f565b92915050565b60006020828403121561087457600080fd5b600061088284828501610838565b91505092915050565b6000806040838503121561089e57600080fd5b60006108ac85828601610838565b92505060206108bd85828601610838565b9150509250929050565b6000806000606084860312156108dc57600080fd5b60006108ea86828701610838565b93505060206108fb86828701610838565b925050604061090c8682870161084d565b9150509250925092565b6000806040838503121561092957600080fd5b600061093785828601610838565b92505060206109488582860161084d565b9150509250929050565b61095b81610c11565b82525050565b61096a81610c23565b82525050565b600061097d601c83610b76565b91507f416c6c6f77616e636520616d6f756e7420697320746f6f206c6f7721000000006000830152602082019050919050565b60006109bd602383610b76565b91507f596f752063616e6e6f74207472616e7366657220746f2073616d652077616c6c60008301527f65742100000000000000000000000000000000000000000000000000000000006020830152604082019050919050565b6000610a23601e83610b76565b91507f43616e6e6f7420417070726f76652053616d65204164647265737365732100006000830152602082019050919050565b6000610a63601583610b76565b91507f496e73756666696369656e742042616c616e63652100000000000000000000006000830152602082019050919050565b610a9f81610c4f565b82525050565b6000602082019050610aba6000830184610952565b92915050565b6000602082019050610ad56000830184610961565b92915050565b60006020820190508181036000830152610af481610970565b9050919050565b60006020820190508181036000830152610b14816109b0565b9050919050565b60006020820190508181036000830152610b3481610a16565b9050919050565b60006020820190508181036000830152610b5481610a56565b9050919050565b6000602082019050610b706000830184610a96565b92915050565b600082825260208201905092915050565b6000610b9282610c4f565b9150610b9d83610c4f565b9250827fffffffffffffffffffffffffffffffffffffffffffffffffffffffffffffffff03821115610bd257610bd1610c59565b5b828201905092915050565b6000610be882610c4f565b9150610bf383610c4f565b925082821015610c0657610c05610c59565b5b828203905092915050565b6000610c1c82610c2f565b9050919050565b60008115159050919050565b600073ffffffffffffffffffffffffffffffffffffffff82169050919050565b6000819050919050565b7f4e487b7100000000000000000000000000000000000000000000000000000000600052601160045260246000fd5b610c9181610c11565b8114610c9c57600080fd5b50565b610ca881610c4f565b8114610cb357600080fd5b5056fea2646970667358221220ae0071e8ae809cd6add842e488d120f49cd8c7e9634b1bfb0f4d749db6767ba464736f6c63430008000033",
  "linkReferences": {},
  "deployedLinkReferences": {}
}